:020000040000FA
:0400000068EF00F0B5
:080008005FEF00F009500A024D
:10001000F3500E6EF4500F6E106A116A09500B0205
:10002000F3500F26F4501022000E096E11220950D1
:100030000C02F3501026F450112209500D02F35017
:1000400011261200200E1C6E0D6A0E6A0F6A106ACD
:10005000D8901536163617361836D89009360A361F
:100060000B360C360D360E360F3610361050145C2B
:10007000D8A447EF00F00F50135CD8A447EF00F06E
:100080000E50125CD8A447EF00F00D50115CD8B4AC
:100090004DEF00F0D8B05BEF00F0D8800D50115458
:1000A0000D6E0E5012540E6E0F5013540F6E1050F2
:1000B0001454106E15801C2E28EF00F01200000161
:1000C000E9501E6EEA501F6E0950196EEAEF03F0F8
:1000D0009B8CFF0E0F01486FFF0E496FC26AC16A09
:1000E000D26AD16A0001970E096ED10E0A6E0B0E0C
:1000F0000B6E0B2E79EF00F00A2E77EF00F0092E31
:1001000075EF00F0FC0ECA140109CA6EF19EE00EF4
:100110000E01F6150C09F66FE00ED3150E09D36F1C
:10012000E00ECC151209CC6FE00ED7150509D76F7C
:100130000C0EBA6E94940C0EB46E939692909292AA
:100140008B829492DEEF00F00001A06FC96EC6BEF4
:10015000FF0CC7A0A9EF00F0C95012009F6FA4EFD9
:1001600000F0FF0EA4EC00F000019F6F1200726F10
:10017000C66AC79E7251D8A4C2EF00F0C698C78C59
:10018000D5EF00F07205D8A4CAEF00F0C698C79C5E
:10019000D5EF00F0020E725DD8A4D3EF00F0C68850
:1001A000C78CD5EF00F0C688C79C0F0E7415096E7A
:1001B000F00EC6140910C66EC68A1200938A949E69
:1001C0009398020E0001746F000EB7EC00F0246AE1
:1001D000256A266A276A0001639184EF02F0976F0F
:1001E0009751D8A4F8EF00F0950E9D6F03EF01F042
:1001F000080E975DD8A401EF01F0870E9D6F03EF05
:1002000001F0FF0E9D6F400E9727FF0EAEEC00F041
:1002100000019751AEEC00F000019B51AEEC00F0F4
:1002200000019A51AEEC00F000019951AEEC00F0E3
:1002300000019851AEEC00F000019D51AEEC00F0D1
:1002400000019E6BB1EC00F000019C6F9C29D8A4CA
:1002500030EF01F09E2B640E9E5DD8A422EF01F0DA
:100260009C511200010E866F8651D8B444EF01F004
:10027000010E986F996B9A6B9B6B010EEFEC00F07F
:100280000001866F34EF01F01200C698C78C726BC4
:100290008B9E8A9A8A980001430E096E3A0E0A6E66
:1002A0000A2E50EF01F0092E4EEF01F00000000081
:1002B000000000008B82746BFF0EAEEC00F00001BA
:1002C000742B0B0E745DD8A45CEF01F0786B725147
:1002D000D8A498EF01F00001430E096E3A0E0A6EA1
:1002E0000A2E70EF01F0092E6EEF01F00000000001
:1002F000000000008B920001100E096E3E0E0A6E87
:100300000A2E80EF01F0092E7EEF01F00000986BBD
:10031000996B9A6B9B6B000EEFEC00F00001726F13
:100320008B82782B640E785DD8A467EF01F0120001
:100330008B92AA0E986F010E996F9A6B9B6B080EA9
:10034000EFEC00F00001726F72A5ADEF01F0638178
:100350008B9232EC01F08B8212007E6BB1EC00F0DC
:100360000001726F7E2B040E7E5DD8A4AEEF01F00B
:100370008B82AA0E725DD8A406EF02F08B92986B66
:10038000996B9A6B9B6B370EEFEC00F00001726F6C
:10039000986B996B9A6B400E9B6F290EEFEC00F0F7
:1003A0000001726F7251D8A4BFEF01F0986B996B86
:1003B0009A6B9B6B3A0EEFEC00F00001726FB1ECA0
:1003C00000F000017A6F400E7A157B6F7B51D8B434
:1003D000EDEF01F06391EEEF01F06381B1EC00F01D
:1003E0000001726FB1EC00F00001726FB1EC00F02F
:1003F0000001726F986B020E996F9A6B9B6B100ED7
:10040000EFEC00F00001726F8B8212008B82120001
:100410008B920001926B986B996B9A6B9B6B0C0E95
:10042000EFEC00F00001922B040E925DD8A40BEFCC
:1004300002F08B821200C698C78C8B9263A12CEFBE
:1004400002F09451956F9351946F9251936F926B08
:10045000D8909337943795379251986F9351996FFD
:1004600094519A6F95519B6F120EEFEC00F0246A35
:10047000256A266A276A120024502510D8A44CEF5A
:1004800002F0B1EC00F00001966FFE0E965DD8B45C
:100490004CEF02F041EF02F0B1EC00F00001926F7E
:1004A000242AD8B4252A2450096E020E255C09108E
:1004B000D8A464EF02F0246A256A262AD8B4272A31
:1004C000B1EC00F0B1EC00F000019251120008EC28
:1004D00002F08B8212007251786F7351796F7C6BCE
:1004E0007D6B79EF02F03CEC02F000017C2BD8B47C
:1004F0007D2B7C51785D096E7D51795D0910D8A402
:1005000073EF02F01200120045EC01F00001666B7F
:100510000F0E6615096EF00EC6140910C66E6393B1
:10052000CFEF02F0906B916B5150926F5250936FDE
:100530005350946F5450956F1BEC02F000018F6B79
:100540003CEC02F01D6E00EE28F000018F51E92610
:100550001D50EF6E8F2B200E8F5DD8A4A0EF02F000
:1005600090518D5D096E91518E5D0910D8B467EF81
:1005700002F0200E9027000E912363B39EEF02F04D
:1005800091515A5CD8A4C7EF02F09051595CD8B48D
:10059000CDEF02F0D8B09EEF02F067EF02F05B6A99
:1005A0005C6AE4EF03F05B505C10D8B4DCEF02F05F
:1005B000200E5B26000E5C225B5000018D6F5C50AC
:1005C0008E6F92EC02F028500001726FE50E725DA2
:1005D000D8A4F1EF02F0200E5B26000E5C22DCEFC7
:1005E00002F07251D8A4F9EF02F05B6A5C6ADCEFAA
:1005F00002F0420E725D8B97D8A4D8B08B87540E50
:10060000725D8B99D8A4D8A08B898BA98B978BA767
:100610002DEF03F00F0E33147E6F0F0E7E5DD8A406
:100620002DEF03F0C00E72257F6F806BD8907F3561
:10063000816F8035826F040E006ED89081378237CB
:10064000002E1DEF03F081515B2682515C225B502E
:100650008D6F5C508E6F92EC02F0570E305C000193
:100660008B9FD8B48B8F410E315C8C91D8B48C8128
:100670008CA18B9F560E325C8C91D8B48C818CA14E
:100680008B9F200E335C8C91D8B48C818CA18B9F76
:100690008BBF51EF03F0200E5B26000E5C22DCEFD7
:1006A00002F063A35AEF03F03C50766F3D50776F32
:1006B0005CEF03F0766B776B4250746F4350756F4D
:1006C0004450496E45504A6E46504B6E47504C6EF2
:1006D0004F507E6F50507F6F806B816B050E006EA8
:1006E000D8907E377F3780378137002E70EF03F048
:1006F0004D507E274E507F23000E096E80230950F7
:100700008123010E7E5FD8A07F5FD8A0805FD8A034
:10071000815F4D50116E4E50126E136A146A7E51F5
:10072000096E7F510A6E80510B6E81510C6E22EC66
:1007300000F015500001876F1650886F1750896FB1
:1007400018508A6F515087257E6F525088217F6FD5
:1007500053508921806F54508A21816FFE0E742579
:10076000826FFF0E7521836FFF0E7621846FFF0E5F
:100770007721856F4850096E82510A6E83510B6E46
:1007800084510C6E85510D6E06EC00F00E50000188
:10079000826F0F50836F1050846F1150856F7E51A0
:1007A0008225556E7F518321566E80518421576E6C
:1007B00081518521586E1200CA849E929EB2DEEF4E
:1007C00003F09E929D8212005D6B5E6B5F6B606BAF
:1007D00052EF04F023909EB2238023A04BEF04F04D
:1007E000FF0EC96EC7A0F2EF03F0C950226E206E53
:1007F000FF0EC96EC7A0FAEF03F0C950226E216E3A
:100800002038096E300E0916CF0EBA140910BA6ED0
:10081000D8902030BB6ED890BB322138096E300E94
:100820000916CF0EB4140910B46ED8902130B56EED
:10083000D890B53261076129D8B46207615162115D
:10084000D8A44AEF04F0FF0EC96EC7A025EF04F04C
:10085000C950226E206EFF0EC96EC7A02DEF04F0A6
:10086000C950226E206EFF0EC96EC7A035EF04F08E
:10087000C950226EFE0E225CD8A433EF04F0616BE7
:10088000010E626F010E5D5FD8A05E5FD8A05F5F52
:10089000D8A0605F9E921950096E1E50E96E1F50DD
:1008A000EA6E1100CF0ECD143009CD6E670ECE6EFC
:1008B000C50ECF6ECD80430ECB6EF28EF28C926B56
:1008C000936B946B956B1BEC02F0C60E0001726F7C
:1008D000010E736F6BEC02F03CEC02F0286E3CEC06
:1008E00002F0296E3CEC02F02A6E3CEC02F02B6E1A
:1008F00067EC02F028500001926F2950936F2A5044
:10090000946F2B50956F1BEC02F000016C6B3CEC6C
:1009100002F01D6E00EE28F000016C51E9261D501A
:10092000EF6E6C2B200E6C5DD8A487EF04F0335073
:100930004D6E34504E6E3550486E39504F6E3A50B1
:10094000506E406A416A3E506387D8A463973F5017
:100950006389D8A4639963A9639763A7CDEF04F073
:1009600063833CEC02F000016C6F3CEC02F0000190
:100970006C6F3CEC02F000016C6F3CEC02F000018B
:100980006C6F3CEC02F03E6E3CEC02F03F6E3CECD7
:1009900002F0406E3CEC02F0416E3850096E3E5061
:1009A0000A6E3F500B6E40500C6E41500D6E06ECBF
:1009B00000F00E500001666F0F50676F1050686FA7
:1009C0001150696F3650662737506723000E096E45
:1009D00068230950692366514424516E67514520AC
:1009E000526E68514620536E69514720546ED8901C
:1009F0004F34596E50345A6E040E006ED8905936EA
:100A00005A36002EFEEF04F067EC02F00001666B30
:100A1000676B638563976399639B616B010E626F7C
:100A20006A6B6B6B010E6C6F6D6F639D9EB0638D17
:100A300063BD3BEF05F05D515E115F116011D8B4ED
:100A40003BEF05F06A51800A096E6B51800A095C20
:100A5000D8B431EF05F0D8A031EF05F0898032EF3E
:100A600005F089906B2B7D0E6B5DD8A415EF05F01A
:100A70006B6B15EF05F09E90670ECE6EC50ECF6EB8
:100A80005D515E115F1160116487D8A4649763B7EC
:100A9000648764A782EF05F09D92CA949E92639743
:100AA00067EC02F0D3EC02F055500001926F565003
:100AB000936F5750946F5850956F1BEC02F0D00E07
:100AC000492400016E6F8A0E4A206F6FFF0E4B2083
:100AD000706FFF0E4C20716F6F515D6F70515E6FC4
:100AE00071515F6F606BD8905F335E335D332C0E56
:100AF000726F736B6BEC02F0EA0E0001616F626B58
:100B0000DCEC03F000016D516A276A51800A096E1E
:100B1000FD0E095CD8B493EF05F0D8A093EF05F073
:100B20006C1D010F6D6F6A51D8A499EF05F06C51DF
:100B30006D6F9DA2A0EF05F0010E6C6FA2EF05F0A6
:100B4000030E6C6F659F81B2658F649F63B5ADEFD7
:100B500005F065BF648FAFEF05F065AF648F64AFDC
:100B6000D5EF05F065AFD5EF05F0000E675DD8A4B1
:100B7000BCEF05F00A0E665D649FD8B4C2EF05F0C5
:100B8000D8B0648F000E675DD8A4C9EF05F0820E5F
:100B9000665D6593D8B4CFEF05F0D8A0658365A3F3
:100BA000649F64BF6387666B676B639565BF63858E
:100BB00065BFDEEF05F0662BD8B4672B000E675DCE
:100BC000D8A4E5EF05F0780E665DD8B4ECEF05F03B
:100BD000D8A0ECEF05F0638963A7F5EF05F09DB2AF
:100BE000F5EF05F09D8263976399659D63BBFDEF0B
:100BF00005F063B9658DFFEF05F063A9658D65ADFF
:100C000006EF06F063A906EF06F09D92639B63B9B9
:060C1000638B15EF05F0F7
:08FFF800ACF71AFFFBF9FFF161
:00000001FF
