:020000040000FA
:0400000080315928CA
:0800080080315728A501A60173
:10001000A7010830B2000310A50DA60DA70DA80D6D
:100020000310A00D031C1C282108A5072208A63DCB
:100030002308A73D2408A83DB20B0B280800203058
:10004000B200A401A501A601A7010310AC0DAD0DDE
:10005000AE0DAF0D0310A00DA10DA20DA30DA40DAB
:10006000A50DA60DA70D27082B02031D4128260864
:100070002A02031D412825082902031D41282408BE
:10008000280203194528031854282808A40229081F
:10009000031C290FA5022A08031C2A0FA6022B08FD
:1000A000031C2B0FA7022C14B20B25280800843147
:1000B000742CC03032001E051F389E00C130210054
:1000C000970523008C018E0121009D019E010430C3
:1000D00022009100920104309300940120005630D8
:1000E000A000BC30A1000F30A2008031A20B762806
:1000F0008031A10B73288031A00B712824008C154E
:100100008E1426008C0111303C00A10019303D00F6
:10011000A2001830A0000C30A5000D30A3008F30D5
:1001200025009300920121008E128F302500970048
:10013000960121008E118C120C1122000C16210048
:100140000C12E0282100D50024009100951BFF34FB
:100150001418AB28A82811080800D400A228FF30E2
:10016000A2202100D4000800A700240095019413C8
:1001700021002708031DC028240015121417D228B7
:100180002703031DC728240015121413D228023098
:100190002702031DCF28240015161417D228240087
:1001A000151614130F30210029052000A000F0308F
:1001B0002400150520002004240095009516080051
:1001C0008E140E110E100230A9000030B420200051
:1001D000B801B901BA01BB0177108231972ACC006E
:1001E0004C08031DF6289530D200FF2808304C0239
:1001F000031DFD288730D200FF28FF30D200403099
:10020000CC07FF30AD2021004C088031AD2021000B
:1002100050088031AD2021004F088031AD202100F1
:100220004E088031AD2021004D088031AD202100E5
:1002300052088031AD202100D3018031AF20210050
:10024000D100510A8131031926292B29D30A6430A0
:100250005302031D1D295108080001302100BB0075
:100260003B0803193F290130CD00CE01CF01D00159
:1002700001308031EF202100BB008131302908009E
:100280002400151214172100A70122000E118E1050
:100290000E102000E530A0000A30A1008131A10B32
:1002A0004F298131A00B4C29000000000000000004
:1002B00022000C162100A901FF308031AD20210061
:1002C000A90A0B3029028131031D5C29AD012708E1
:1002D000031D9C292000E530A0000A30A1008131D7
:1002E000A10B70298131A00B6D29000000000000D6
:1002F000000022000C122000AF30A0000230A1004C
:100300008131A10B81298131A00B7E2900000000E1
:100310002100CD01CE01CF01D00100308031EF208E
:100320002100A70022000C162100AD0A64302D0226
:100330008131031D6729080022000C12AA30210018
:10034000CD000130CE00CF01D00108308031EF2048
:100350002100A7008131271DB429771422000C1237
:100360002D2122000C160800B3018031AF2021009E
:10037000A700B30A043033028131031DB5292200DE
:100380000C16AA30210027028231031D112A2200F7
:100390000C122100CD01CE01CF01D00137308031C8
:1003A000EF202100A700CD01CE01CF014030D000C9
:1003B00029308031EF202100A70027088131031D5B
:1003C000C929CD01CE01CF01D0013A308031EF20D3
:1003D0002100A7008031AF202100AF0040302F0561
:1003E000B000300881310319F7297710F829771404
:1003F0008031AF202100A7008031AF202100A7006D
:100400008031AF202100A700CD010230CE00CF0106
:10041000D00110308031EF202100A70022000C16FF
:10042000080022000C16080022000C122100C7014F
:10043000CD01CE01CF01D0010C308031EF20210061
:10044000C70A043047028231031D182A22000C1605
:10045000080024001512141722000C12771C3C2AE5
:1004600021004908CA004808C9004708C800C70158
:100470000310C80DC90DCA0D21004708CD0048085A
:10048000CE004908CF004A08D00012308031EF205A
:100490002000B801B901BA01BB01080020003808EA
:1004A0003904031D5D2A8031AF202100CB00FE30CE
:1004B0004B02823103195D2A532A8031AF2021007B
:1004C000C7002000B80A0319B90A3808A000023092
:1004D000390220048231031D762AB801B901BA0A13
:1004E0000319BB0A8031AF208031AF2021004708BB
:1004F0000800142222000C1608002708AD00280866
:10050000AE00B101B201892A4E222100B10A0319BD
:10051000B20A31082D022000A000210032082E026C
:10052000200020048231031D842A08000800813144
:100530004021FA010F307A052000A000F03024009D
:1005400015052000200424009500F03015050A3818
:10055000950001309200F7108231FA2AC501C601D8
:10056000200065082100C700200066082100C8009F
:10057000200067082100C900200068082100CA0087
:1005800029222100C40182314E222000B3003C30D8
:10059000840085012100440884072000330880007E
:1005A0002100C40A203044028231031DC32A4508B9
:1005B00042022000A000210046084302200020043F
:1005C000031DE32AF92A20302100C5070030C63D6B
:1005D000F718C12A460820006E02031DF32A2100E5
:1005E000450820006D020319F72A0318C12A823139
:1005F000F92A792A2000EF01F00184316F2C2000C4
:100600006F08700483310319092B2030EF07003085
:10061000F03D6F082100C200200070082100C300D7
:100620008231AE2220003C082100A700E5302702DD
:100630008331031D212B20302000EF070030F03DD7
:10064000092B2708031D282B2000EF01F001092B9F
:1006500042302702C011031D0318C0155430270271
:100660004012031D031C4016401EC011C01D612B0B
:100670000F30200047052100B3000F303302031D67
:10068000612B40302702B400B5010310340DB600D1
:10069000350DB7000430FF000310B60DB70DFF0B8A
:1006A0004C2B36082000EF07210037082000F03DD2
:1006B0006F082100C200200070082100C3008231B1
:1006C000AE225730200044022100C0130319C01786
:1006D0004130200045022100411003194114411C02
:1006E000C013563020004602210041100319411466
:1006F000411CC01320302000470221004110031983
:100700004114411CC0138331C01F872B8D2B203017
:100710002000EF070030F03D092BF71C982B20003C
:1007200050082100AB00200051082100AC009A2B9A
:10073000AB01AC01200056082100A9002000570899
:100740002100AA0020005808DD005908DE005A08E0
:10075000DF005B08E00063082100B30020006408AC
:100760002100B400B501B6010530FF000310B30D40
:10077000B40DB50DB60DFF0BB62B2000610821009E
:10078000B307200062082100B43D00302000A00023
:100790002100B53D200020082100B63D0130B30204
:1007A000031CB402031CB502031CB602200061083E
:1007B000A8006208A900AA01AB01210033082000AB
:1007C000A000210034082000A100210035082000ED
:1007D000A200210036082000A30080311F20200045
:1007E0002C082100BC0020002D082100BD002000A5
:1007F0002E082100BE0020002F082100BF0020008D
:10080000650821003C07B3002000660821003D3D3B
:10081000B4002000670821003E3DB50020006808B4
:1008200021003F3DB6002908B7002A08B8002B0870
:10083000B9002C08BA000230B7020030FF00031CD8
:100840007F0FB8020030FF00031C7F0FB902003099
:10085000FF00031C7F0FBA0220005C08A0002100EB
:1008600037082000A100210038082000A200210044
:1008700039082000A30021003A082000A40080319C
:100880000620200025082100B700200026082100AE
:10089000B800200027082100B90020002808210006
:1008A000BA00330837072000E90021003408383D3A
:1008B0002000EA0021003508393D2000EB0021002E
:1008C00036083A3D2000EC00080020001F1591106A
:1008D000911C6B2C682C9110210091140800F101DF
:1008E000F201F301F401CD2C2000371091183714D8
:1008F000371CCC2CFF30240091001418802C7D2C48
:1009000011082000B600B400FF3024009100141834
:100910008A2C872C11082000B600B5003408250069
:1009200091002000350825009500F503750A03198C
:10093000F60375087604031DCA2CFF3024009100CD
:100940001418A32CA02C11082000B600B400FF300E
:10095000240091001418AD2CAA2C11082000B60018
:10096000B400FF30240091001418B72CB42C1108E7
:100970002000B600FE3036020319BF2CB12CF50161
:100980000130F6000130F102031CF202031CF302F5
:10099000031CF402200091100900CF301B053038F1
:1009A0009B00B7309900D7309A001B14BA309E00D4
:1009B0008B170B172100C701C801C901CA01823179
:1009C0002922C6302100A7000130A80082317D22F3
:1009D00082314E222000BC0082314E222000BD0018
:1009E00082314E222000BE0082314E222000BF0004
:1009F0008231792220003C082100C70020003D08F8
:100A00002100C80020003E082100C90020003F0846
:100A10002100CA00823129222100A10182314E2207
:100A20002000B3003C3084008501210021088407A8
:100A30002000330880002100A10A203021028531E6
:100A4000031D0E2D20004708E1004808E200490878
:100A5000DC004D08E3004E08E400D401D501520843
:100A6000F715031DF71153087716031D7712771E2C
:100A7000F711F71D5C2DF71482314E222100A100E1
:100A800082314E222100A10082314E222100A1009C
:100A900082314E222100A10082314E222000D2005C
:100AA00082314E222000D30082314E222000D40019
:100AB00082314E222000D5004C08A0005208A1002F
:100AC0005308A2005408A3005508A4008031062052
:100AD00020002508FA002608FB002708FC0028084B
:100AE000FD004A08FA074B08FB3D0030A000FC3D22
:100AF0002008FD3D7A085807E5007B08593DE600CF
:100B00007C085A3DE7007D085B3DE8000310630D5B
:100B1000ED00640DEE000430FF000310ED0DEE0D4E
:100B20008531FF0B8D2D82317922FA01FB0177157A
:100B3000F7117712F712F5010130F600FE012100DE
:100B4000A0010130A100A20077132000111877172F
:100B50008531771BCB2D7108720473047404031D57
:100B6000B22DCB2D7E08803AA00021002008803ACB
:100B7000200020020319C12D031CC12D22008C1658
:100B8000C32D22008C122100A00A7D302002031DFB
:100B9000A42DA001A42D1110B7309900D7309A00D0
:100BA0007108720473047404F815031DF811F71921
:100BB000F8158631F81D2E2E2100911020001F11EE
:100BC0009110F711823179228231FF2220006908C9
:100BD0002100C70020006A082100C80020006B081F
:100BE0002100C90020006C082100CA00823129229E
:100BF00020005D082100A30020005E082100A40061
:100C000020005F082100A500200060082100A60048
:100C10003030A3027530FF00031C7F0FA4020030A8
:100C2000FF00031C7F0FA5020030FF00031C7F0F95
:100C3000A6022408F1002508F2002608F300F401BA
:100C40000310F30CF20CF10C2C30A700A801823138
:100C50007D22EA30F500F601843165242100220866
:100C6000FE077E08803A2000A000FD302002863179
:100C70000319402E031C402E21002109013EA20031
:100C80007E08031D462E21002108A2002100911C90
:100C90004C2E0130A1004E2E0330A100F91320008C
:100CA0008C19F917F8137719582EF91BF8175A2EC3
:100CB000F91FF817F81F7A2EF91F7A2E00307B02E1
:100CC000031D642E0A307A02F8130319692E0318E3
:100CD000F81700307B02031D6F2E82307A02F91064
:100CE0000319742E031CF914F91CF813F81BF715DB
:100CF000FA01FB017711F91B7715F91B822EFA0A0D
:100D00000319FB0A00307B02031D882E78307A021B
:100D100003198D2E031C8D2E7716F71D952E21009D
:100D20009118952E9114F71177127913F71A9B2EBB
:100D3000771A79179D2E771E7917791FA32E771EA4
:100D4000A32E21009110F712771AF7168531A42DE2
:020000040001F9
:02000E008C174D
:060010003627FF1FFF3F31
:00000001FF
