:020000040000FA
:0400000080315C28C7
:0800080080315728A501A60173
:10001000A7010830B3000310A50DA60DA70DA80D6C
:100020000310A00D031C1C282108A5072208A63DCB
:100030002308A73D2408A83DB30B0B280800203057
:10004000B300A401A501A601A7010310AC0DAD0DDD
:10005000AE0DAF0D0310A00DA10DA20DA30DA40DAB
:10006000A50DA60DA70D27082B02031D4128260864
:100070002A02031D412825082902031D41282408BE
:10008000280203194528031854282808A40229081F
:10009000031C290FA5022A08031C2A0FA6022B08FD
:1000A000031C2B0FA7022C14B30B252808002000DB
:1000B0002008B00084315C2C87302100190570388D
:1000C0009900C03018051F389800C13097052300EB
:1000D0008C018D0121009D019E01043022009100C0
:1000E000920104309300940120005630A000BC30EF
:1000F000A1000F30A2008031A20B7C288031A10B1F
:1001000079288031A00B77282100951324008C16C4
:100110008D140D150D1522009D171E141D170C3082
:10012000260093000C309A0021008C110C120D1047
:100130000C1122008D1521008D11DC282100D80022
:1001400024009100951BFF341418A728A428110837
:100150000800D7009E28FF309E202100D70008000D
:10016000AA0024009501941321002A08031DBC282D
:10017000240015121417CE282A03031DC3282400B7
:1001800015121413CE2802302A02031DCB28240096
:1001900015161417CE282400151614130F3021003D
:1001A0002C052000A000F0302400150520002004BC
:1001B00024009500951608008D140C130D120230C2
:1001C000AC000030B0202000BB01BC01BD01BE016D
:1001D0007A108231932ACF004F08031DF228953000
:1001E000D500FB2808304F02031DF9288730D500C1
:1001F000FB28FF30D5004030CF07FF30A920210079
:100200004F088031A920210053088031A920210006
:1002100052088031A920210051088031A9202100F5
:1002200050088031A920210055088031A9202100E3
:10023000D6018031AB202100D400540A813103194A
:1002400022292729D60A64305602031D1929540889
:10025000080001302100BE003E0803193B2901308F
:10026000D000D101D201D30101308031EB20210037
:10027000BE0081312C29080024001512141721001A
:10028000AA0122000C138D100D122000E530A000F1
:100290000A30A1008131A10B4B298131A00B4829E3
:1002A000000000000000000022008D152100AC01BC
:1002B000FF308031A9202100AC0A0B302C028131A3
:1002C000031D5829B0012A08031D98292000E53094
:1002D000A0000A30A1008131A10B6C298131A00B53
:1002E0006929000000000000000022008D1120009C
:1002F000AF30A0000230A1008131A10B7D298131F6
:10030000A00B7A29000000002100D001D101D20108
:10031000D30100308031EB202100AA0022008D158E
:100320002100B00A643030028131031D63290800C6
:1003300022008D11AA302100D0000130D100D2015D
:10034000D30108308031EB202100AA0081312A1D21
:10035000B0297A1422008D11292122008D15080060
:10036000B6018031AB202100AA00B60A0430360263
:100370008131031DB12922008D15AA3021002A02E6
:100380008231031D0D2A22008D112100D001D101DF
:10039000D201D30137308031EB202100AA00D001F7
:1003A000D101D2014030D30029308031EB2021002F
:1003B000AA002A088131031DC529D001D101D2012B
:1003C000D3013A308031EB202100AA008031AB20EC
:1003D0002100B20040303205B300330881310319E7
:1003E000F3297A10F4297A148031AB202100AA0075
:1003F0008031AB202100AA008031AB202100AA006F
:10040000D0010230D100D201D30110308031EB2075
:100410002100AA0022008D15080022008D15080079
:1004200022008D112100CA01D001D101D201D301D6
:100430000C308031EB202100CA0A04304A0282319C
:10044000031D142A22008D1508002400151214170C
:1004500022008D117A1C382A21004C08CD004B084F
:10046000CC004A08CB00CA010310CB0DCC0DCD0D3A
:1004700021004A08D0004B08D1004C08D2004D089A
:10048000D30012308031EB202000BB01BC01BD0144
:10049000BE01080020003B083C04031D592A80319E
:1004A000AB202100CE00FE304E0282310319592AC2
:1004B0004F2A8031AB202100CA002000BB0A03195B
:1004C000BC0A3B08A00002303C0220048231031D1C
:1004D000722ABB01BC01BD0A0319BE0A8031AB20E0
:1004E0008031AB2021004A080800102222008D151F
:1004F00008002A08B0002B08B100B401B501852A14
:100500004A222100B40A0319B50A34083002200037
:10051000A000210035083102200020048231031D93
:10052000802A0800080081313C212100A0010F3001
:1005300020052000A000F030240015052000200434
:1005400024009500FA108231EE2AC801C90120006A
:1005500068082100CA00200069082100CB002000A3
:100560006A082100CC0020006B082100CD00252264
:100570002100C70182314A222000B4003F308400AC
:1005800085012100470884072000340880002100ED
:10059000C70A203047028231031DBA2A48084502A3
:1005A0002000A00021004908460220002004031D6D
:1005B000DA2AED2A20302100C8070030C93DFA1898
:1005C000B82A49087102031DE72A48087002031976
:1005D000EB2A0318B82A8231ED2A752AF201F301B9
:1005E0008431572C720873040319FA2A2030F20759
:1005F0000030F33D72082100C5007308C600A52233
:1006000020003F082100AA00E5302A028331031DA3
:100610000F2B2030F2070030F33D8231FA2A2A08EE
:10062000031D162BF201F3018231FA2A42302A020D
:10063000C311031D0318C31554302A024312031DAE
:10064000031C4316431EC311C31D492B0F3020004A
:100650004A052100B6000F303602031D492B4030F9
:100660002A02B700B8010310370DB900380DBA00DF
:100670000430FF000310B90DBA0DFF0B3A2B3908F7
:10068000F2073A08F33D7208C5007308C6008231CC
:10069000A5225730200047022100C3130319C317B6
:1006A0004130200048022100441003194414441C26
:1006B000C31356302000490221004410031944148A
:1006C000441CC313203020004A02210044100319A7
:1006D0004414441CC3138331C31F6F2B752B20306C
:1006E000F2070030F33D8231FA2AFA1C802B2000F9
:1006F00053082100AE00200054082100AF00822BD7
:10070000AE01AF01200059082100AC0020005A08BA
:100710002100AD0020005B08E0005C08E1005D08FE
:10072000E2005E08E30066082100B60020006708CA
:100730002100B700B801B9010530FF000310B60D64
:10074000B70DB80DB90DFF0B9E2B200064082100DA
:10075000B607200065082100B73D00302000A0004A
:100760002100B83D200020082100B93D0130B6022B
:10077000031CB702031CB802031CB9022000640862
:10078000A8006508A900AA01AB01210036082000D5
:10079000A000210037082000A10021003808200017
:1007A000A200210039082000A30080311F20200072
:1007B0002C082100BF0020002D082100C0002000CF
:1007C0002E082100C10020002F082100C2002000B7
:1007D000680821003F07B600200069082100403D5D
:1007E000B70020006A082100413DB80020006B08D6
:1007F0002100423DB9002C08BA002D08BB002E088C
:10080000BC002F08BD000230BA020030FF00031CFC
:100810007F0FBB020030FF00031C7F0FBC020030C3
:10082000FF00031C7F0FBD0220005F08A000210015
:100830003A082000A10021003B082000A20021006E
:100840003C082000A30021003D082000A4008031C6
:100850000620200025082100BA00200026082100DB
:10086000BB00200027082100BC0020002808210030
:10087000BD0036083A072000EC00210037083B3D58
:100880002000ED00210038083C3D2000EE00210052
:1008900039083D3D2000EF00080020001C15911094
:1008A000911C532C502C9110210091140800F4013C
:1008B000F501F601F701D42C3A1091183A143A1CBC
:1008C000D12CFF30240091001418672C642C1108DF
:1008D0002000B900B700FF30240091001418712CDB
:1008E0006E2C11082000B900B800370EA00030307F
:1008F000A005CF3026001305200020042600930019
:1009000003102000370C260091000310910C2000EA
:10091000380EA0003030A005CF3026001A05200088
:10092000200426009A0003102000380C26009800AE
:100930000310980CF803780A0319F903780879046E
:10094000031DCF2CFF30240091001418A82CA52CD7
:1009500011082000B900B700FF30240091001418DE
:10096000B22CAF2C11082000B900B700FF302400D2
:1009700091001418BC2CB92C11082000B900FE30CD
:1009800039020319C42CB62CF8010130F9000130EA
:10099000F402031CF502031CF602031CF7022000FC
:1009A00091103008A0000900CF3020001805303821
:1009B0009800B7309600D73097001814BA309B00D3
:1009C0008B170B172100CA01CB01CC01CD0182315D
:1009D0002522C6302100AA000130AB0082317922E5
:1009E00082314A222000BF0082314A222000C0000A
:1009F00082314A222000C10082314A222000C200F6
:100A00008231752220003F082100CA0020004008E2
:100A10002100CB00200041082100CC00200042082A
:100A20002100CD00823125222100A40182314A22F9
:100A30002000B4003F308400850121002408840791
:100A40002000340880002100A40A203024028531CF
:100A5000031D162D20004A08E4004B08E5004C0851
:100A6000DF005008E6005108E700D701D80155081B
:100A7000FA15031DFA1156087A16031D7A127A1E0A
:100A8000FA11FA1D642DFA1482314A222100A400C1
:100A900082314A222100A40082314A222100A4008E
:100AA00082314A222100A40082314A222000D5004E
:100AB00082314A222000D60082314A222000D7000B
:100AC00082314A222000D8004F08A0005508A1001A
:100AD0005608A2005708A3005808A4008031062039
:100AE000200025082100A000200026082100A100E8
:100AF000200027082100A200200028082100A300D0
:100B000020004D082100A00720004E082100A13D33
:100B100000302000A0002100A23D2000200821007C
:100B2000A33D200820005B07E800210021082000E9
:100B30005C3DE9002100220820005D3DEA00210023
:100B4000230820005E3DEB000310660DF000670DEA
:100B5000F1000430FF000310F00DF10D8531FF0BA3
:100B6000AB2D823175222100A001A1017A15FA1165
:100B70007A12FA12F8010130F900FD01FE0101308C
:100B8000A400A5007A13200011187A1785317A1B6A
:100B9000E62D7408750476047704031DD02DE62D28
:100BA0007D08803AA0007E08803A20020319DD2DDE
:100BB000031CDD2D22000D14DF2D22000D10FE0A76
:100BC0007D307E02031DC22DFE01C22D1110B730F3
:100BD0009600D73097007408750476047704FB15E7
:100BE000031DFB11FA19FB158631FB1D492E21004F
:100BF000911020001C119110FA118231752282315E
:100C0000F22220006C082100CA0020006D0821009B
:100C1000CB0020006E082100CC0020006F082100CE
:100C2000CD0082312522200060082100A60020008E
:100C300061082100A700200062082100A800200010
:100C400063082100A9003030A6027530FF00031CA4
:100C50007F0FA7020030FF00031C7F0FA8020030A7
:100C6000FF00031C7F0FA9022708F4002808F500E5
:100C70002908F600F7010310F60CF50CF40C2C30E3
:100C8000AA00AB0182317922EA30F800F9018431FF
:100C90004D2421002508FD077D08803A2000A00092
:100CA000FD302002863103195B2E031C5B2E2100D0
:100CB0002409013EA5007D08031D612E21002408A2
:100CC000A5002100911C672E0130A400692E03307D
:100CD000A400FC1320008C1AFC17FB137A19732E46
:100CE000FC1BFB17752EFC1FFB17FB1F962EFC1F12
:100CF000962E003021002102031D802E0A30200292
:100D0000FB130319852E0318FB1700302102031D66
:100D10008B2E82302002FC100319902E031CFC1431
:100D2000FC1CFB13FB1BFA15A001A1017A11FC1B93
:100D30007A15FC1B9F2E2100A00A0319A10A00307E
:100D400021002102031DA62E783020020319AB2EAC
:100D5000031CAB2E7A16FA1DB22E9118B22E9114E6
:100D6000FA117A127C13FA1AB82E7A1A7C17BA2E54
:100D70007A1E7C177C1FBF2E7A1EBF2E9110FA128E
:080D80007A1AFA168531C22D22
:020000040001F9
:02000E00AC093B
:02001000FF1FD0
:00000001FF
