:020000040000FA
:0400000068EF00F0B5
:080008005FEF00F009500A024D
:10001000F3500E6EF4500F6E106A116A09500B0205
:10002000F3500F26F4501022000E096E11220950D1
:100030000C02F3501026F450112209500D02F35017
:1000400011261200200E1C6E0D6A0E6A0F6A106ACD
:10005000D8901536163617361836D89009360A361F
:100060000B360C360D360E360F3610361050145C2B
:10007000D8A447EF00F00F50135CD8A447EF00F06E
:100080000E50125CD8A447EF00F00D50115CD8B4AC
:100090004DEF00F0D8B05BEF00F0D8800D50115458
:1000A0000D6E0E5012540E6E0F5013540F6E1050F2
:1000B0001454106E15801C2E28EF00F01200000161
:1000C000E9501E6EEA501F6E0950196ED7EF03F00B
:1000D000FC0ED3168F0ED3146009D36EC00E9B1482
:1000E0001F099B6E7E6A7F6AC26AC16AC06A080E77
:1000F0006D6E080E6B6E6C6A0001ED0E096E4F0E90
:100100000A6E0D0E0B6E0B2E83EF00F00A2E81EFA0
:1001100000F0092E7FEF00F0F19E7888788A7786CC
:100120000C0EBD6E949A949894928B8C949CD3EF01
:1001300000F000019F6FC96EC6BEFF0CC7A09EEF06
:1001400000F0C95012009E6F99EF00F0FF0E99EC7D
:1001500000F000019E6F1200716FC66AC79E715158
:10016000D8A4B7EF00F0C698C78CCAEF00F07105AD
:10017000D8A4BFEF00F0C698C79CCAEF00F0020EEB
:10018000715DD8A4C8EF00F0C688C78CCAEF00F034
:10019000C688C79C0F0E7315096EF00EC6140910A1
:1001A000C66EC68A12009388949E939C020E736F4B
:1001B000000EACEC00F0236A246A256A266A00016E
:1001C000629171EF02F0966F9651D8A4ECEF00F0B7
:1001D000950E9C6FF7EF00F0080E965DD8A4F5EF32
:1001E00000F0870E9C6FF7EF00F0FF0E9C6F400E43
:1001F0009627FF0EA3EC00F000019651A3EC00F04F
:1002000000019A51A3EC00F000019951A3EC00F019
:1002100000019851A3EC00F000019751A3EC00F00D
:1002200000019C51A3EC00F000019D6BA6EC00F0D6
:1002300000019B6F9B29D8A424EF01F09D2B640E35
:100240009D5DD8A416EF01F09B511200010E856F41
:100250008551D8B438EF01F0010E976F986B996B08
:100260009A6B010EE3EC00F00001856F28EF01F0BE
:100270001200C698C78C716B8B9E8A988A9C00016D
:10028000D90E096E0B0E0A6E0A2E44EF01F0092EEC
:1002900042EF01F000008B8C736BFF0EA3EC00F0BB
:1002A0000001732B0B0E735DD8A44DEF01F0776B3B
:1002B0007151D8A485EF01F00001D90E096E0B0E23
:1002C0000A6E0A2E61EF01F0092E5FEF01F00000C7
:1002D0008B9C0001BF0E096E020E0A6E0A2E6EEF95
:1002E00001F0092E6CEF01F0976B986B996B9A6B8C
:1002F000000EE3EC00F00001716F8B8C772B640E25
:10030000775DD8A458EF01F012008B9CAA0E976F6E
:10031000010E986F996B9A6B080EE3EC00F00001E8
:10032000716F71A59AEF01F062818B9C26EC01F050
:100330008B8C12007D6BA6EC00F00001716F7D2BA1
:10034000040E7D5DD8A49BEF01F08B8CAA0E715D2D
:10035000D8A4F3EF01F08B9C976B986B996B9A6B19
:10036000370EE3EC00F00001716F976B986B996B9F
:10037000400E9A6F290EE3EC00F00001716F71518D
:10038000D8A4ACEF01F0976B986B996B9A6B3A0E0F
:10039000E3EC00F00001716FA6EC00F00001796F52
:1003A000400E79157A6F7A51D8B4DAEF01F0629184
:1003B000DBEF01F06281A6EC00F00001716FA6ECAA
:1003C00000F00001716FA6EC00F00001716F976BF7
:1003D000020E986F996B9A6B100EE3EC00F000011F
:1003E000716F8B8C12008B8C12008B9C0001916BB7
:1003F000976B986B996B9A6B0C0EE3EC00F0000115
:10040000912B040E915DD8A4F8EF01F08B8C1200B3
:10041000C698C78C8B9C62A119EF02F09351946F20
:100420009251936F9151926F916BD890923793370D
:1004300094379151976F9251986F9351996F94514E
:100440009A6F120EE3EC00F0236A246A256A266A8A
:10045000120023502410D8A439EF02F0A6EC00F0CB
:100460000001956FFE0E955DD8B439EF02F02EEFC6
:1004700002F0A6EC00F00001916F232AD8B4242AE0
:100480002350096E020E245C0910D8A451EF02F02B
:10049000236A246A252AD8B4262AA6EC00F0A6EC02
:1004A00000F0000191511200F5EC01F08B8C12006C
:1004B0007151776F7251786F7B6B7C6B66EF02F0D6
:1004C00029EC02F000017B2BD8B47C2B7B51775DAB
:1004D000096E7C51785D0910D8A460EF02F012001B
:1004E000120039EC01F00001656B0F0E6515096E05
:1004F000F00EC6140910C66E6293BCEF02F08F6B4B
:10050000906B5050916F5150926F5250936F535067
:10051000946F08EC02F000018E6B29EC02F01D6E66
:1005200000EE27F000018E51E9261D50EF6E8E2B54
:10053000200E8E5DD8A48DEF02F08F518C5D096E78
:1005400090518D5D0910D8B454EF02F0200E8F2722
:10055000000E902362B38BEF02F09051595CD8A447
:10056000B4EF02F08F51585CD8B4BAEF02F0D8B0B3
:100570008BEF02F054EF02F05A6A5B6AD1EF03F09E
:100580005A505B10D8B4C9EF02F0200E5A26000E64
:100590005B225A5000018C6F5B508D6F7FEC02F034
:1005A00027500001716FE50E715DD8A4DEEF02F0F7
:1005B000200E5A26000E5B22C9EF02F07151D8A41A
:1005C000E6EF02F05A6A5B6AC9EF02F0420E715D13
:1005D0008A97D8A4D8B08A87540E715D8A99D8A416
:1005E000D8A08A898AA98A978AA71AEF03F00F0EE2
:1005F00032147D6F0F0E7D5DD8A41AEF03F0C00E8C
:1006000071257E6F7F6BD8907E35806F7F35816FCF
:10061000040E006ED89080378137002E0AEF03F069
:1006200080515A2681515B225A508C6F5B508D6FDE
:100630007FEC02F0570E2F5C00018A9FD8B48A8F9E
:10064000410E305C8B91D8B48B818BA18A9F560E62
:10065000315C8B91D8B48B818BA18A9F200E325C48
:100660008B91D8B48B818BA18A9F8ABF3EEF03F018
:10067000200E5A26000E5B22C9EF02F062A347EF5C
:1006800003F03B50756F3C50766F49EF03F0756B8C
:10069000766B4150736F4250746F4350486E4450B4
:1006A000496E45504A6E46504B6E4E507D6F4F50CE
:1006B0007E6F7F6B806B050E006ED8907D377E3726
:1006C0007F378037002E5DEF03F04C507D274D5073
:1006D0007E23000E096E7F2309508023010E7D5F6B
:1006E000D8A07E5FD8A07F5FD8A0805F4C50116EED
:1006F0004D50126E136A146A7D51096E7E510A6E56
:100700007F510B6E80510C6E22EC00F015500001F1
:10071000866F1650876F1750886F1850896F50502A
:1007200086257D6F515087217E6F525088217F6FC3
:1007300053508921806FFE0E7325816FFF0E742147
:10074000826FFF0E7521836FFF0E7621846F4750F5
:10075000096E81510A6E82510B6E83510C6E845169
:100760000D6E06EC00F00E500001816F0F50826F8D
:100770001050836F1150846F7D518125546E7E51CE
:100780008221556E7F518321566E80518421576E90
:100790001200CA849E929EB2CBEF03F09E929D827D
:1007A00012005C6A5D6A5E6A5F6A2AEF04F022905A
:1007B0009EB2228022A023EF04F0FF0EC96EC7A0D4
:1007C000DFEF03F0C950216E206E2038096E300E25
:1007D0000916CF0EBD140910BD6ED8902030BE6E24
:1007E000D890BE3260076029D8B4610760516111AA
:1007F000D8A422EF04F0FF0EC96EC7A0FDEF03F0EE
:10080000C950216E206EFF0EC96EC7A005EF04F01F
:10081000C950216E206EFF0EC96EC7A00DEF04F007
:10082000C950216EFE0E215CD8A40BEF04F0606B62
:10083000020E616F010E5C5ED8A05D5ED8A05E5EA8
:10084000D8A05F5E9E921950096E1E50E96E1F502F
:10085000EA6E1100CF0ECD143009CD6EB70ECE6EFC
:10086000D70ECF6ECD80BA0ECB6EF28EF28C916B1E
:10087000926B936B946B08EC02F0C60E0001716FE3
:10088000010E726F58EC02F029EC02F0276E29EC91
:1008900002F0286E29EC02F0296E29EC02F02A6E93
:1008A00054EC02F027500001916F2850926F2950AC
:1008B000936F2A50946F08EC02F000016B6B29ECE7
:1008C00002F01D6E00EE27F000016B51E9261D506D
:1008D000EF6E6B2B200E6B5DD8A45FEF04F03250EF
:1008E0004C6E33504D6E3450476E38504E6E39500A
:1008F0004F6E3F6A406A3D506287D8A462973E506F
:100900006289D8A4629962A9629762A7A5EF04F0F0
:10091000628329EC02F000016B6F29EC02F0000108
:100920006B6F29EC02F000016B6F29EC02F0000103
:100930006B6F29EC02F03D6E29EC02F03E6E29EC63
:1009400002F03F6E29EC02F0406E3750096E3D50C8
:100950000A6E3E500B6E3F500C6E40500D6E06EC12
:1009600000F00E500001656F0F50666F1050676FFA
:100970001150686F3550652736506623000E096E9A
:1009800067230950682365514324506E6651442003
:10099000516E67514520526E68514620536ED89073
:1009A0004E34586E4F34596E040E006ED89058363F
:1009B0005936002ED6EF04F054EC02F00001656BBE
:1009C000666B628562976299629B606B020E616FD3
:1009D000696B6A6B010E6B6F6C6F629D9EB0628D6E
:1009E00062BD13EF05F05C505D105E105F10D8B46F
:1009F00013EF05F06951800A096E6A51800A095C9B
:100A0000D8B409EF05F0D8A009EF05F08B880AEFFC
:100A100005F08B986A2B7D0E6A5DD8A4EDEF04F08B
:100A20006A6BEDEF04F09E90B70ECE6ED70ECF6ED0
:100A30005C505D105E105F106387D8A4639762B747
:100A4000638763A75BEF05F09D92CA949E926297BD
:100A500054EC02F0C0EC02F054500001916F55507C
:100A6000926F5650936F5750946F08EC02F0D00E6F
:100A7000482400016D6F8A0E49206E6FFF0E4A20D8
:100A80006F6FFF0E4B20706F6E515C6E6F515D6E1D
:100A900070515E6E5F6AD8905E325D325C322C0EB1
:100AA000716F726B58EC02F0D40E0001606F010E92
:100AB000616FC9EC03F000016C5169276951800A2C
:100AC000096EFD0E095CD8B46CEF05F0D8A06CEF90
:100AD00005F06B1D010F6C6F6951D8A472EF05F022
:100AE0006B516C6F9DA279EF05F0010E6B6F7BEF80
:100AF00005F0030E6B6F649F80B6648F639F62B5D1
:100B000086EF05F064BF638F88EF05F064AF638FF5
:100B100063AFAEEF05F064AFAEEF05F0000E665DBB
:100B2000D8A495EF05F00A0E655D639FD8B49BEFDE
:100B300005F0D8B0638F000E665DD8A4A2EF05F073
:100B4000820E655D6493D8B4A8EF05F0D8A06483E5
:100B500064A3639F63BF6287656B666B629564BFC6
:100B6000628564BFB7EF05F0652BD8B4662B000E25
:100B7000665DD8A4BEEF05F0780E655DD8B4C5EF0C
:100B800005F0D8A0C5EF05F0628962A7CEEF05F0A9
:100B90009DB2CEEF05F09D8262976299649D62BB23
:100BA000D6EF05F062B9648DD8EF05F062A9648DC7
:100BB00064ADDFEF05F062A9DFEF05F09D92629B67
:080BC00062B9628BEDEF04F055
:020000040030CA
:0E00000000190108FF0881FF03C003E0034060
:00000001FF
