:020000040000FA
:0400000080315C28C7
:0800080080315728A501A60173
:10001000A7010830B3000310A50DA60DA70DA80D6C
:100020000310A00D031C1C282108A5072208A63DCB
:100030002308A73D2408A83DB30B0B280800203057
:10004000B300A401A501A601A7010310AC0DAD0DDD
:10005000AE0DAF0D0310A00DA10DA20DA30DA40DAB
:10006000A50DA60DA70D27082B02031D4128260864
:100070002A02031D412825082902031D41282408BE
:10008000280203194528031854282808A40229081F
:10009000031C290FA5022A08031C2A0FA6022B08FD
:1000A000031C2B0FA7022C14B30B252808002000DB
:1000B0002008B0008431462C8730210019057038A3
:1000C0009900C03018051F389800C13097052300EB
:1000D0008C0121009D019E010430220091009201BB
:1000E00020005630A000BC30A1000F30A2008031AB
:1000F000A20B78288031A10B75288031A00B7328C2
:100100002100951324008C150C1522001D140C30B1
:100110002500930021008C1222000C1621000C12E5
:10012000CA282100D40024009100951BFF34141824
:100130009A28972811080800D3009128FF309120B1
:100140002100D3000800FD002400950194137D08D0
:10015000031DAD2815121417BC287D03031DB328F9
:1001600015121413BC2802307D02031DBA2815167F
:100170001417BC28151614130F3021002805200071
:10018000A000F03024001505200020042400950074
:10019000951608000C150C108C100230A8000030C9
:1001A000A3202000BA01BB01BC01BD01791082313E
:1001B000792ACB004B08031DE0289530D100E928AF
:1001C00008304B02031DE7288730D100E928FF30B3
:1001D000D1004030CB07FF309C2021004B088031FC
:1001E0009C2021004F0880319C2021004E08803146
:1001F0009C2021004D0880319C2021004C0880313A
:100200009C202100510880319C202100D2018031A6
:100210009E202100D000500A813103191029152990
:10022000D20A64305202031D072950080800013029
:100230002100BA003A08031929290130CC00CD0168
:10024000CE01CF0101308031D9202100BA008131A7
:100250001A290800240015121417FD0122000C10A1
:100260000C118C102000E530A0000A30A100813173
:10027000A10B38298131A00B3529000000000000B6
:10028000000022000C162100A801FF3080319C20C4
:100290002100A80A0B3028028131031D4529AC0139
:1002A0007D08031D84292000E530A0000A30A1004C
:1002B0008131A10B59298131A00B56290000000082
:1002C0000000000022000C122000AF30A00002301D
:1002D000A1008131A10B6A298131A00B672900009F
:1002E00000002100CC01CD01CE01CF0100308031D2
:1002F000D920FD0022000C162100AC0A64302C022B
:100300008131031D5029080022000C12AA3021005F
:10031000CC000130CD00CE01CF0108308031D92092
:10032000FD0081317D1D9B29791422000C121721BB
:1003300022000C1608002100B20180319E20FD0031
:100340002100B20A043032028131031D9D292200AE
:100350000C16AA307D02031DF2290C122100CC01DB
:10036000CD01CE01CF0137308031D920FD002100F1
:10037000CC01CD01CE014030CF0029308031D920D1
:10038000FD007D088131031DAE292100CC01CD0186
:10039000CE01CF013A308031D920FD0080319E203E
:1003A0002100AE0040302E05AF002F088131031927
:1003B000DB297910DC29791480319E20FD00803101
:1003C0009E20FD0080319E20FD002100CC010230E6
:1003D000CD00CE01CF0110308031D920FD002200A8
:1003E0000C1608000C16080022000C122100C60191
:1003F000CC01CD01CE01CF010C308031D9202100BC
:10040000C60A043046028131031DF82922000C1669
:10041000080024001512141722000C12791C1C2A43
:1004200021004808C9004708C8004608C700C6019F
:100430000310C70DC80DC90D21004608CC004708A0
:10044000CD004808CE004908CF0012308031D920B5
:100450002000BA01BB01BC01BD01080020003A0820
:100460003B04031D3D2A80319E202100CA00FE303E
:100470004A02823103193D2A332A80319E2021000D
:10048000C6002000BA0A0319BB0A3A08A0000230CD
:100490003B0220048231031D562ABA01BB01BC0A6B
:1004A0000319BD0A80319E2080319E20210046081C
:1004B00008008131F42122000C1608007D0821007B
:1004C000AC007E08AD00B001B1016B2A2E222100E4
:1004D000B00A0319B10A30082C022000A000210044
:1004E00031082D02200020048231031D662A0800F5
:1004F000080081312A212100A0010F3020052000B1
:10050000A000F030240015052000200424009500F0
:10051000F9108231D72AC401C501200067082100E3
:10052000C600200068082100C700200069082100DB
:10053000C80020006A082100C90009222100C30167
:1005400082312E222000B4003E308400850121003B
:10055000430884072000340880002100C30A2030AB
:1005600043028231031DA02A440841022000A0005A
:1005700021004508420220002004031DC02AD62A7B
:1005800020302100C4070030C53DF9189E2A4508D7
:1005900020007002031DD02A2100440820006F02B1
:1005A0000319D42A03189E2A8231D62A592AF10126
:1005B000F2018431412C710872040319E32A2030BE
:1005C000F1070030F23D71082100C1007208C2003D
:1005D0008B2220003E08FD00E5307D028231031DA4
:1005E000F62A2030F1070030F23DE32A7D088231FF
:1005F000031DFE2AF101F2018231E32A42307D021D
:100600002100BF11031D0318BF1554307D023F1296
:10061000031D031C3F163F1EBF118331BF1D332B2B
:100620000F30200049052100B2000F303202031DB7
:10063000332B40307D02B300B4010310330DB500FD
:10064000340DB6000430FF000310B50DB60DFF0BDE
:10065000242B3508F1073608F23D7108C1007208F5
:10066000C20082318B225730200046022100BF1386
:100670000319BF1741302000470221004010031921
:100680004014401CBF135630200048022100401087
:1006900003194014401CBF132030200049022100E0
:1006A000401003194014401CBF138331BF1F592B46
:1006B0005F2B2030F1070030F23D8231E32AF91C34
:1006C0006A2B200052082100AA00200053082100B4
:1006D000AB006C2BAA01AB01200058082100A80038
:1006E000200059082100A90020005A08DF005B08FB
:1006F000E0005C08E1005D08E20065082100B2004E
:10070000200066082100B300B401B5010530FF00E8
:100710000310B20DB30DB40DB50DFF0B882B2000E7
:1007200063082100B207200064082100B33D0030B7
:100730002000A0002100B43D200020082100B53D8C
:100740000130B202031CB302031CB402031CB50245
:1007500020006308A8006408A900AA01AB012100D9
:1007600032082000A000210033082000A100210051
:1007700034082000A200210035082000A3008031A9
:100780001F2020002C082100BB0020002D08210084
:10079000BC0020002E082100BD0020002F082100F1
:1007A000BE002000670821003B07B2002000680857
:1007B00021003C3DB3002000690821003D3DB4000C
:1007C00020006A0821003E3DB5002808B60029082F
:1007D000B7002A08B8002B08B9000230B602003072
:1007E000FF00031C7F0FB7020030FF00031C7F0FC8
:1007F000B8020030FF00031C7F0FB90220005E0822
:10080000A000210036082000A100210037082000A8
:10081000A200210038082000A30021003908200090
:10082000A40080310620200025082100B600200009
:1008300026082100B700200027082100B80020006A
:1008400028082100B900320836072000EB002100FB
:100850003308373D2000EC0021003408383D2000EB
:10086000ED0021003508393D2000EE000800200091
:100870001C159110911C3D2C3A2C911021009114C3
:100880000800F301F401F501F601A12C39109118CB
:100890003914391C9E2CFF30240091001418512C5F
:1008A0004E2C11082000B800B700370EA0003030E1
:1008B000A005CF302500130520002004250093005B
:1008C00003102000370C250091000310910CF70352
:1008D000770A0319F80377087804031D9C2CFF306E
:1008E000240091001418752C722C11082000B800F7
:1008F000B700FF302400910014187F2C7C2C1108C5
:100900002000B800B700FF30240091001418892C93
:10091000862C11082000B800FE3038020319912CF3
:10092000832CF7010230F8000130F302031CF402BB
:10093000031CF502031CF602200091103008A000F1
:100940000900CF302000180530389800B7309600E5
:10095000D73097001814BA309B008B170B17210063
:10096000C601C701C801C90182310922C630FD0094
:100970000130FE0082315E2282312E222000BE0034
:1009800082312E222000BF0082312E222000C000A2
:1009900082312E222000C1008231592220003E08DF
:1009A0002100C60020003F082100C70020004008A9
:1009B0002100C800200041082100C900823109221D
:1009C000FC0182312E222000B4003E3084008501DB
:1009D0007C08840734088000FC0A20307C028431C3
:1009E000031DE12C4908E3004A08E4004B08DE003F
:1009F0004F08E5005008E600D601D7015408F91564
:100A0000031DF91155087916031D7912791EF91184
:100A10008531F91D282DF91482312E22FC008231F6
:100A20002E22FC0082312E22FC0082312E22FC007C
:100A300082312E222000D40082312E222000D500C7
:100A400082312E222000D60082312E222000D700B3
:100A50004E08A0005408A1005508A2005608A300A3
:100A60005708A40080310620200025082100A0009E
:100A7000200026082100A100200027082100A20054
:100A8000200028082100A30020004C082100A00716
:100A900020004D082100A13D00302000A0002100D1
:100AA000A23D200020082100A33D200820005A0775
:100AB000E7002100210820005B3DE800210022081A
:100AC00020005C3DE9002100230820005D3DEA0094
:100AD0000310650DEF00660DF0000430FF000310F9
:100AE000EF0DF00D8531FF0B6F2D82315922210062
:100AF000A001A1017915F9117912F912F70102305B
:100B0000F80079132000111879178531791B8E2D83
:100B10007308740475047604031D812D1110B73019
:100B20009600D73097007308740475047604FA149D
:100B3000031DFA10F919FA14FA1CF12D2100911075
:100B400020001C119110F911823159228231DB22CF
:100B500020006B082100C60020006C082100C7009F
:100B600020006D082100C80020006E082100C90087
:100B70008231092220005F082100A40020006008C3
:100B80002100A500200061082100A60020006208C5
:100B90002100A7003030A4027530FF00031C7F0F36
:100BA000A5020030FF00031C7F0FA6020030FF00EB
:100BB000031C7F0FA7022508F3002608F40027086E
:100BC000F500F6010310F50CF40CF30C2C30FD00CD
:100BD000FE0182315E22D430F7000130F80084310A
:100BE0003724FB1120008C19FB15FA118531791976
:100BF000FC2DFB19FA15FE2DFB1DFA158631FA1D89
:100C0000202EFB1D202E003021002102031D0A2E64
:100C10000A302002FA1103190F2E0318FA150030BA
:100C20002102031D152E82302002FA1203191A2EFA
:100C3000031CFA16FA1EFA11FA19F915A001A101FE
:100C40007911FB197915FB19292E2100A00A031926
:100C5000A10A003021002102031D302E783020022D
:100C60000319352E031C352E7916F91D3C2E9118CB
:100C70003C2E9114F91179127B11F91A422E791A2E
:100C80007B15442E791E7B157B1D492E791E492E1E
:0C0C90009110F912791AF9168531812DA6
:020000040001F9
:02000E00AC093B
:02001000FF1FD0
:00000001FF
