:020000040000FA
:0400000080315928CA
:0800080080315728A501A60173
:10001000A7010830B2000310A50DA60DA70DA80D6D
:100020000310A00D031C1C282108A5072208A63DCB
:100030002308A73D2408A83DB20B0B280800203058
:10004000B200A401A501A601A7010310AC0DAD0DDE
:10005000AE0DAF0D0310A00DA10DA20DA30DA40DAB
:10006000A50DA60DA70D27082B02031D4128260864
:100070002A02031D412825082902031D41282408BE
:10008000280203194528031854282808A40229081F
:10009000031C290FA5022A08031C2A0FA6022B08FD
:1000A000031C2B0FA7022C14B20B25280800843147
:1000B000602CC03032001E051F389E00C130210068
:1000C000970523008C0121009D019E010430220030
:1000D0009100920120005630A000BC30A1000F30EA
:1000E000A2008031A20B72288031A10B6F288031D1
:1000F000A00B6D2824008C150C1526008C010230F5
:100100003C00A10019303D009000183091000C30E7
:1001100095008F3025009300920121008C1222005F
:100120000C1621000C12D2282100D10024009100CD
:10013000951BFF3414189D289A2811080800D00038
:100140009428FF3094202100D0000800A40024004F
:100150009501941321002408031DB22824001512D0
:100160001417C4282403031DB928240015121413DE
:10017000C42802302402031DC128240015161417B8
:10018000C4282400151614130F3021002605200062
:10019000A000F03024001505200020042400950064
:1001A000951608000C150C108C100230A6000030BB
:1001B000A6202000B701B801B901BA01761082313A
:1001C000882AC8004808031DE8289530CE00F12889
:1001D00008304802031DEF288730CE00F128FF3099
:1001E000CE004030C807FF309F20210048088031F2
:1001F0009F2021004C0880319F2021004B08803136
:100200009F2021004A0880319F2021004908803129
:100210009F2021004E0880319F202100CF01803196
:10022000A1202100CD004D0A8131031918291D2973
:10023000CF0A64304F02031D0F294D08080001301A
:10024000FE007E080319302901302100C900CA01CF
:10025000CB01CC0101308031E120FE008131212928
:1002600008002400151214172100A40122000C100C
:100270000C118C102000E530A0000A30A100813163
:10028000A10B40298131A00B3D2900000000000096
:10029000000022000C162100A601FF3080319F20B3
:1002A0002100A60A0B3026028131031D4D29AA0127
:1002B0002408031D8D292000E530A0000A30A1008C
:1002C0008131A10B61298131A00B5E290000000062
:1002D0000000000022000C122000AF30A00002300D
:1002E000A1008131A10B72298131A00B6F2900007F
:1002F00000002100C901CA01CB01CC0100308031CE
:10030000E1202100A40022000C162100AA0A64307A
:100310002A028131031D5829080022000C12AA303C
:100320002100C9000130CA00CB01CC010830803166
:10033000E1202100A4008131241DA529761422008A
:100340000C121F2122000C160800B0018031A120E0
:100350002100A400B00A043030028131031DA62917
:1003600022000C16AA30210024028231031D022A29
:1003700022000C122100C901CA01CB01CC01373087
:100380008031E1202100A400C901CA01CB01403025
:10039000CC0029308031E1202100A40024088131E3
:1003A000031DBA29C901CA01CB01CC013A30803101
:1003B000E1202100A4008031A1202100AC004030C8
:1003C0002C05AD002D0881310319E8297610E929A3
:1003D00076148031A1202100A4008031A1202100C9
:1003E000A4008031A1202100A400C9010230CA006C
:1003F000CB01CC0110308031E1202100A40022008B
:100400000C16080022000C16080022000C12210015
:10041000C301C901CA01CB01CC010C308031E120FC
:100420002100C30A043043028231031D092A22003D
:100430000C16080024001512141722000C12761C4A
:100440002D2A21004508C6004408C5004308C40001
:10045000C3010310C40DC50DC60D21004308C9001A
:100460004408CA004508CB004608CC001230803151
:10047000E1202000B701B801B901BA01080020004D
:1004800037083804031D4E2A8031A1202100C700FF
:10049000FE304702823103194E2A442A8031A120BE
:1004A0002100C3002000B70A0319B80A3708A000CA
:1004B0000230380220048231031D672AB701B801D7
:1004C000B90A0319BA0A8031A1208031A120210084
:1004D00043080800052222000C1608002408AA0080
:1004E0002508AB00AE01AF017A2A3F222100AE0AF7
:1004F0000319AF0A2E082A022000A00021002F08AD
:100500002B02200020048231031D752A08000800F8
:1005100081313121F9010F3079052000A000F03040
:10052000240015052000200424009500F6108231D7
:10053000E52AC101C201200064082100C300200097
:1005400065082100C400200066082100C5002000C5
:1005500067082100C6001A222100C00182313F2213
:100560002000B3003B30840085012100400884074F
:100570002000330880002100C00A20304002823170
:10058000031DAE2A41083E022000A00021004208BF
:100590003F0220002004031DCE2AE42A203021003F
:1005A000C1070030C23DF618AC2A420820006D0297
:1005B000031DDE2A2100410820006C020319E22AF3
:1005C0000318AC2A8231E42A6A2A2000EE01EF01E6
:1005D00084315B2C20006E086F040319F32A20304D
:1005E000EE070030EF3D6E082100BE0020006F08CE
:1005F0002100BF00992220003B082100A400E53023
:1006000024028331031D0B2B20302000EE07003025
:10061000EF3D8231F32A2408031D132B2000EE0145
:10062000EF018231F32A42302402BC11031D03186A
:10063000BC15543024023C12031D031C3C163C1E06
:10064000BC11BC1D4C2B0F30200046052100B00012
:100650000F303002031D4C2B40302402B100B20198
:100660000310310DB300320DB4000430FF0003104D
:10067000B30DB40DFF0B372B33082000EE0721001C
:1006800034082000EF3D6E082100BE0020006F08F6
:100690002100BF00823199225730200043022100FF
:1006A000BC130319BC1741302000440221003D1047
:1006B00003193D143D1CBC13563020004502210097
:1006C0003D1003193D143D1CBC1320302000460290
:1006D00021003D1003193D143D1CBC138331BC1F88
:1006E000722B792B20302000EE070030EF3D823155
:1006F000F32AF61C842B20004F082100A8002000BC
:1007000050082100A900862BA801A9012000550846
:100710002100A600200056082100A700200057084D
:10072000DC005808DD005908DE005A08DF006208C6
:100730002100B000200063082100B100B201B30124
:100740000530FF000310B00DB10DB20DB30DFF0B5E
:10075000A22B200060082100B007200061082100C2
:10076000B13D00302000A0002100B23D2000200853
:100770002100B33D0130B002031CB102031CB202E0
:10078000031CB30220006008A8006108A900AA01A8
:10079000AB01210030082000A0002100310820001A
:1007A000A100210032082000A2002100330820000F
:1007B000A30080311F2020002C082100B800200059
:1007C0002D082100B90020002E082100BA002000C9
:1007D0002F082100BB002000640821003807B0006A
:1007E000200065082100393DB10020006608210085
:1007F0003A3DB2002000670821003B3DB3002608C7
:10080000B4002708B5002808B6002908B700023050
:10081000B4020030FF00031C7F0FB5020030FF0060
:10082000031C7F0FB6020030FF00031C7F0FB702CE
:1008300020005B08A000210034082000A100210056
:1008400035082000A200210036082000A300210066
:1008500037082000A4008031062020002508210050
:10086000B400200026082100B50020002708210040
:10087000B600200028082100B70030083407200007
:10088000E80021003108353D2000E9002100320850
:10089000363D2000EA0021003308373D2000EB0000
:1008A000080020001F159110911C572C542C9110FA
:1008B000210091140800F001F101F201F301AA2CCA
:1008C0002000361091183614361CA92CFF30240055
:1008D000910014186C2C692C11082000B500B4008C
:1008E00025009100F403740A0319F50374087504D4
:1008F000031DA72CFF30240091001418802C7D2CA0
:1009000011082000B500B400FF3024009100141835
:100910008A2C872C11082000B500B400FF30240079
:1009200091001418942C912C11082000B500FE3071
:10093000350203199C2C8E2CF4010230F500013095
:10094000F002031CF102031CF202031CF30220005C
:1009500091100900CF301B0530389B00B73099004B
:10096000D7309A001B14BA309E008B170B1721004A
:10097000C301C401C501C60182311A22C63021005B
:10098000A4000130A50082316E2282313F22200076
:10099000BB0082313F222000BC0082313F22200078
:1009A000BD0082313F222000BE0082316A22200039
:1009B0003B082100C30020003C082100C4002000A7
:1009C0003D082100C50020003E082100C6008231FC
:1009D0001A22FD0182313F222000B3003B30840007
:1009E00085017D08840733088000FD0A20307D02E0
:1009F0008431031DEA2C4608E0004708E10048085E
:100A0000DB004C08E2004D08E300D301D40151089B
:100A1000F615031DF61152087616031D7612761E82
:100A2000F6118531F61D312DF61482313F22FD007D
:100A300082313F22FD0082313F22FD0082313F2280
:100A4000FD0082313F222000D10082313F22200070
:100A5000D20082313F222000D30082313F22200089
:100A6000D4004B08A0005108A1005208A20053086E
:100A7000A3005408A4008031062020002508F900B6
:100A80002608FA002708FB002808FC004908F90797
:100A90004A08FA3D0030A000FB3D2008FC3D7908E3
:100AA0005707E4007A08583DE5007B08593DE60009
:100AB0007C085A3DE7000310620DEC00630DED0069
:100AC0000430FF000310EC0DED0D8531FF0B622D9E
:100AD00082316A22F901FA017615F6117612F612C0
:100AE000F4010230F50076132000111876178531D5
:100AF000761B802D7008710472047304031D732D1E
:100B00001110B7309900D7309A0070087104720440
:100B10007304F714031DF710F619F714F71CE32DEF
:100B20002100911020001F119110F61182316A22CC
:100B30008231EA22200068082100C30020006908F1
:100B40002100C40020006A082100C50020006B08B5
:100B50002100C60082311A2220005C082100A0007A
:100B600020005D082100A10020005E082100A200F5
:100B700020005F082100A3003030A0027530FF0084
:100B8000031C7F0FA1020030FF00031C7F0FA20295
:100B90000030FF00031C7F0FA3022108F000220891
:100BA000F1002308F200F3010310F20CF10CF00C39
:100BB0002C30A400A50182316E22D430F400013023
:100BC000F50084315124F81120008C19F815F71123
:100BD00085317619EE2DF819F715F02DF81DF7155A
:100BE0008631F71D132EF81D132E00307A02853141
:100BF000031DFC2D0A307902F71186310319022EEC
:100C00000318F71500307A02031D082E823079028E
:100C1000F71203190D2E031CF716F71EF711F7191B
:100C2000F615F901FA017611F8197615F8191B2E47
:100C3000F90A0319FA0A00307A02031D212E7830CE
:100C400079020319262E031C262E7616F61D2E2E4B
:100C5000210091182E2E9114F61176127811F61AA1
:100C6000342E761A7815362E761E7815781D3C2E81
:100C7000761E3C2E21009110F612761AF61685315A
:020C8000732DD2
:020000040001F9
:02000E008C174D
:060010003627FF1FFF3F31
:00000001FF
