:020000040000FA
:0400000080315928CA
:0800080080315728A501A60173
:10001000A7010830B2000310A50DA60DA70DA80D6D
:100020000310A00D031C1C282108A5072208A63DCB
:100030002308A73D2408A83DB20B0B280800203058
:10004000B200A401A501A601A7010310AC0DAD0DDE
:10005000AE0DAF0D0310A00DA10DA20DA30DA40DAB
:10006000A50DA60DA70D27082B02031D4128260864
:100070002A02031D412825082902031D41282408BE
:10008000280203194528031854282808A40229081F
:10009000031C290FA5022A08031C2A0FA6022B08FD
:1000A000031C2B0FA7022C14B20B25280800843147
:1000B000852C87302100190570389900C03018054B
:1000C0001F389800C1302E00910523008C018D014E
:1000D0008E0121009D019E019F01043022009100AC
:1000E000920104309300940120005630A000BC30EF
:1000F000A1000F30A2008031A20B7C288031A10B1F
:1001000079288031A00B77282100951324008C15C5
:100110000D168D1626008C010C303C00A10011300C
:100120003D00A70010309E000C30A5000D30A3004C
:10013000F03020009E058C302500930092012100B4
:100140008E128C3025009A00990121008E110E121A
:100150008E1022000E1721000E13EC282100D5006E
:1001600024009100951BFF341418B728B4281108F7
:100170000800D400AE28FF30AE202100D4000800D3
:10018000A70024009501941321002708031DCC2803
:10019000240015121417DE282703031DD32824007A
:1001A00015121413DE2802302702031DDB28240059
:1001B00015161417DE282400151614130F3021000D
:1001C00029052000A000F03024001505200020049F
:1001D00024009500951608000D168E130D1302309D
:1001E000A9000030C0202000B801B901BA01BB014C
:1001F00077108231A52ACC004C088131031D0329D8
:100200009530D2000C2908304C02031D0A29873092
:10021000D2000C29FF30D2004030CC07FF308031B3
:10022000B92021004C088031B920210050088031CC
:10023000B92021004F088031B92021004E088031BB
:10024000B92021004D088031B920210052088031A9
:10025000B9202100D3018031BB202100D100510AF7
:100260008131031934293929D30A64305302031D1B
:100270002B295108080001302100BB003B0803195D
:100280004D290130CD00CE01CF01D00101308031A8
:10029000FB202100BB0081313E29080024001512FB
:1002A00014172100A70122008E130D120D13200038
:1002B000E530A0000A30A1008131A10B5D29813118
:1002C000A00B5A29000000000000000022000E17B9
:1002D0002100A901FF308031B9202100A90A0B308B
:1002E00029028131031D6A29AD012708031DAA29AE
:1002F0002000E530A0000A30A1008131A10B7E2949
:100300008131A00B7B2900000000000000002200CA
:100310000E132000AF30A0000230A1008131A10BEC
:100320008F298131A00B8C29000000002100CD0114
:10033000CE01CF01D00100308031FB202100A70089
:1003400022000E172100AD0A64302D028131031DF9
:100350007529080022000E13AA302100CD000130BB
:10036000CE00CF01D00108308031FB202100A70052
:100370008131271DC229771422000E133B21220050
:100380000E170800B3018031BB202100A700B30A7B
:10039000043033028131031DC32922000E17AA3015
:1003A000210027028231031D1F2A22000E13210083
:1003B000CD01CE01CF01D00137308031FB202100AB
:1003C000A700CD01CE01CF014030D00029308031CF
:1003D000FB202100A70027088131031DD729CD016B
:1003E000CE01CF01D0013A308031FB202100A7009F
:1003F0008031BB202100AF0040302F05B000300815
:1004000082310319052A7710062A77148031BB2020
:100410002100A7008031BB202100A7008031BB2034
:100420002100A700CD010230CE00CF01D001103055
:100430008031FB202100A70022000E1708002200B7
:100440000E17080022000E132100C701CD01CE01B6
:10045000CF01D0010C308031FB202100C70A0430CD
:1004600047028231031D262A22000E1708002400AD
:100470001512141722000E13771C4A2A210049086E
:10048000CA004808C9004708C800C7010310C80DC2
:10049000C90DCA0D21004708CD004808CE00490803
:1004A000CF004A08D00012308031FB202000B80174
:1004B000B901BA01BB010800200038083904031D46
:1004C0006B2A8031BB202100CB00FE304B028231F1
:1004D00003196B2A612A8031BB202100C70020004C
:1004E000B80A0319B90A3808A000023039022004FA
:1004F0008231031D842AB801B901BA0A0319BB0A63
:100500008031BB208031BB20210047080800222217
:1005100022000E1708002708AD002808AE00B10120
:10052000B201972A5C222100B10A0319B20A3108EC
:100530002D022000A000210032082E0220002004FD
:100540008231031D922A0800080081314E21FA01F0
:100550000F307A052000A000F0302400150520009F
:10056000200424009500F03015050A38950001306C
:100570009200F71083310C2BC501C60120006508DD
:100580002100C700200066082100C800200067087D
:100590002100C900200068082100CA00372221007C
:1005A000C40182315C222000B3003C30840085010C
:1005B0002100440884072000330880002100C40A79
:1005C000203044028231031DD12A45084202200016
:1005D000A00021004608430220002004031DF22A47
:1005E00083310A2B20302100C5070030C63DF718A3
:1005F000CF2A460820006E028331031D032B210001
:10060000450820006D020319082B82310318CF2AF8
:1006100083310A2B8231872A2000EF01F0018431D7
:10062000802C20006F08700403191A2B2030EF076C
:100630000030F03D6F082100C2002000700821004A
:10064000C3008231BC2220003C082100A700E53015
:1006500027028331031D322B20302000EF070030AA
:10066000F03D1A2B2708031D392B2000EF01F00164
:100670001A2B42302702C011031D0318C015543035
:1006800027024012031D031C4016401EC011C01D4E
:10069000722B0F30200047052100B3000F303302CA
:1006A000031D722B40302702B400B5010310340D36
:1006B000B600350DB7000430FF000310B60DB70DBE
:1006C000FF0B5D2B36082000EF07210037082000C4
:1006D000F03D6F082100C200200070082100C30017
:1006E0008231BC225730200044022100C01303197C
:1006F000C017413020004502210041100319411468
:10070000411CC0135630200046022100411003193D
:100710004114411CC0132030200047022100411029
:1007200003194114411CC0138331C01F982B9E2B09
:1007300020302000EF070030F03D1A2BF71CA92BCA
:10074000200050082100AB00200051082100AC001F
:10075000AB2BAB01AC01200056082100A900200002
:1007600057082100AA0020005808DD005908DE00C3
:100770005A08DF005B08E00063082100B300200096
:1007800064082100B400B501B6010530FF00031074
:10079000B30DB40DB50DB60DFF0BC72B20006108CE
:1007A0002100B307200062082100B43D0030200082
:1007B000A0002100B53D200020082100B63D0130F9
:1007C000B302031CB402031CB502031CB6022000D2
:1007D0006108A8006208A900AA01AB012100330842
:1007E0002000A000210034082000A10021003508CD
:1007F0002000A200210036082000A30080311F2025
:1008000020002C082100BC0020002D082100BD0084
:1008100020002E082100BE0020002F082100BF006C
:100820002000650821003C07B30020006608210075
:100830003D3DB4002000670821003E3DB50020008A
:10084000680821003F3DB6002908B7002A08B80013
:100850002B08B9002C08BA000230B7020030FF00A4
:10086000031C7F0FB8020030FF00031C7F0FB9028A
:100870000030FF00031C7F0FBA0220005C08A000BC
:10088000210037082000A100210038082000A20024
:10089000210039082000A30021003A082000A4000C
:1008A00080310620200025082100B70020002608FE
:1008B0002100B800200027082100B90020002808E6
:1008C0002100BA00330837072000E900210034086E
:1008D000383D2000EA0021003508393D2000EB00BA
:1008E000210036083A3D2000EC00080020009C174B
:1008F0009010901C7C2C792C9010210090140800F2
:10090000F101F201F301F401DE2C20003710901800
:100910003714371CDD2CFF30240091001418912C63
:100920008E2C11082000B600B400FF302400910086
:1009300014189B2C982C11082000B600B500340820
:10094000250091002000350825009800F503750A60
:100950000319F60375087604031DDB2CFF30240011
:1009600091001418B42CB12C11082000B600B4006A
:10097000FF30240091001418BE2CBB2C110820005D
:10098000B600B400FF30240091001418C82CC52C08
:1009900011082000B600FE3036020319D02CC22CFC
:1009A000F5010130F6000130F102031CF202031CD4
:1009B000F302031CF402200090100900CF30180548
:1009C00030389800B7309600D73097001814BA30F6
:1009D0009B008B170B172100C701C801C901CA0171
:1009E00082313722C6302100A7000130A8008231B1
:1009F0008B2282315C222000BC0082315C222000EC
:100A0000BD0082315C222000BE0082315C222000C9
:100A1000BF008231872220003C082100C70020004F
:100A20003D082100C80020003E082100C900200028
:100A30003F082100CA00823137222100A101823102
:100A40005C222000B3003C30840085012100210895
:100A500084072000330880002100A10A20302102F1
:100A60008531031D1F2D20004708E1004808E200E2
:100A70004908DC004D08E3004E08E400D401D5012C
:100A80005208F715031DF71153087716031D771247
:100A9000771EF711F71D6D2DF71482315C222100AE
:100AA000A10082315C222100A10082315C22210060
:100AB000A10082315C222100A10082315C22200051
:100AC000D20082315C222000D30082315C222000DF
:100AD000D40082315C222000D5004C08A0005208CE
:100AE000A1005308A2005408A3005508A4008031B7
:100AF000062020002508FA002608FB002708FC0035
:100B00002808FD004A08FA074B08FB3D0030A0000A
:100B1000FC3D2008FD3D7A085807E5007B08593D5B
:100B2000E6007C085A3DE7007D085B3DE8000310C5
:100B3000630DED00640DEE000430FF000310ED0DB9
:100B4000EE0D8531FF0B9E2D82318722FA01FB01CC
:100B50007715F7117712F712F5010130F600FE0153
:100B60002100A0010130A100A2007713200010187D
:100B700077178531771BDC2D7108720473047404B8
:100B8000031DC32DDC2D7E08803AA0002100200823
:100B9000803A200020020319D22D031CD22D2200FE
:100BA0000E16D42D22000E122100A00A7D30200244
:100BB000031DB52DA001B52D1010B7309600D7300C
:100BC00097007108720473047404F815031DF8117A
:100BD000F719F8158631F81D3F2E210090102000DE
:100BE0009C139010F711823187228331112320004A
:100BF00069082100C70020006A082100C800200001
:100C00006B082100C90020006C082100CA00823155
:100C1000372220005D082100A30020005E0821008B
:100C2000A40020005F082100A5002000600821002A
:100C3000A6003030A3027530FF00031C7F0FA40212
:100C40000030FF00031C7F0FA5020030FF00031CD3
:100C50007F0FA6022408F1002508F2002608F30001
:100C6000F4010310F30CF20CF10C2C30A700A801D6
:100C700082318B22EA30F500F6018431762421009E
:100C80002208FE077E08803A2000A000FD302002E6
:100C900086310319512E031C512E21002109013EDA
:100CA000A2007E08031D572E21002108A20021006A
:100CB000901C5D2E0130A1005F2E0330A100F913BE
:100CC00020008C19F917F8137719692EF91BF817FA
:100CD0006B2EF91FF817F81F8B2EF91F8B2E003083
:100CE0007B02031D752E0A307A02F81303197A2E3F
:100CF0000318F81700307B02031D802E82307A0221
:100D0000F9100319852E031CF914F91CF813F81BAC
:100D1000F715FA01FB017711F91B7715F91B932ED3
:100D2000FA0A0319FB0A00307B02031D992E783062
:100D30007A0203199E2E031C9E2E7716F71DA62EEF
:100D400021009018A62E9014F71177127913F71A34
:100D5000AC2E771A7917AE2E771E7917791FB42E1D
:100D6000771EB42E21009010F712771AF7168531EE
:020D7000B52D9F
:020000040001F9
:02000E00BC092B
:04001000FB1FBF3FD4
:00000001FF
