:020000040000FA
:0400000080315C28C7
:0800080080315728A501A60173
:10001000A7010830B3000310A50DA60DA70DA80D6C
:100020000310A00D031C1C282108A5072208A63DCB
:100030002308A73D2408A83DB30B0B280800203057
:10004000B300A401A501A601A7010310AC0DAD0DDD
:10005000AE0DAF0D0310A00DA10DA20DA30DA40DAB
:10006000A50DA60DA70D27082B02031D4128260864
:100070002A02031D412825082902031D41282408BE
:10008000280203194528031854282808A40229081F
:10009000031C290FA5022A08031C2A0FA6022B08FD
:1000A000031C2B0FA7022C14B30B252808002000DB
:1000B0002008B00084315A2C87302100190570388F
:1000C0009900C03018051F389800C13097052300EB
:1000D0008C018D018E0121009D019E0104302200C2
:1000E0009100920104309300940120005630A0004A
:1000F000BC30A1000F30A2008031A20B7D288031DE
:10010000A10B7A288031A00B7828210095132400B8
:100110008C158E148D160C302500930021008E1244
:100120000C3025009A0021008E110E128E10220034
:100130000E1721000E13DA282100D80024009100A8
:10014000951BFF341418A528A22811080800D70011
:100150009C28FF309C202100D7000800AA00240022
:100160009501941321002A08031DBA2824001512B2
:100170001417CC282A03031DC128240015121413B8
:10018000CC2802302A02031DC92824001516141792
:10019000CC282400151614130F3021002C05200044
:1001A000A000F03024001505200020042400950054
:1001B000951608000D168E130D130230AC0000309A
:1001C000AE202000BB01BC01BD01BE017A1082310E
:1001D000912ACF004F08031DF0289530D500F9284B
:1001E00008304F02031DF7288730D500F928FF306B
:1001F000D5004030CF07FF30A72021004F088031C5
:10020000A720210053088031A72021005208803107
:10021000A720210051088031A720210050088031FB
:10022000A720210055088031A7202100D601803168
:10023000A9202100D400540A81310319202925293D
:10024000D60A64305602031D1729540808000130ED
:100250002100BE003E08031939290130D000D10128
:10026000D201D30101308031E9202100BE0081316B
:100270002A2908002400151214172100AA012200BF
:100280008E130D120D132000E530A0000A30A100DE
:100290008131A10B49298131A00B462900000000C2
:1002A0000000000022000E172100AC01FF30803159
:1002B000A7202100AC0A0B302C028131031D5629E6
:1002C000B0012A08031D96292000E530A0000A305D
:1002D000A1008131A10B6A298131A00B672900009F
:1002E00000000000000022000E132000AF30A0002C
:1002F0000230A1008131A10B7B298131A00B78292B
:10030000000000002100D001D101D201D301003052
:100310008031E9202100AA0022000E172100B00A36
:10032000643030028131031D6129080022000E1360
:10033000AA302100D0000130D100D201D301083011
:100340008031E9202100AA0081312A1DAE297A14CA
:1003500022000E13272122000E170800B60180315B
:10036000A9202100AA00B60A043036028131031DFB
:10037000AF2922000E17AA3021002A028231031D64
:100380000B2A22000E132100D001D101D201D3018A
:1003900037308031E9202100AA00D001D101D201FB
:1003A0004030D30029308031E9202100AA002A08FA
:1003B0008131031DC329D001D101D201D3013A30CB
:1003C0008031E9202100AA008031A9202100B2005B
:1003D00040303205B300330881310319F1297A1016
:1003E000F2297A148031A9202100AA008031A920A5
:1003F0002100AA008031A9202100AA00D0010230EA
:10040000D100D201D30110308031E9202100AA00AF
:1004100022000E17080022000E17080022000E13FB
:100420002100CA01D001D101D201D3010C308031A9
:10043000E9202100CA0A04304A028231031D122A2F
:1004400022000E17080024001512141722000E13A4
:100450007A1C362A21004C08CD004B08CC004A08F3
:10046000CB00CA010310CB0DCC0DCD0D21004A08E5
:10047000D0004B08D1004C08D2004D08D3001230F8
:100480008031E9202000BB01BC01BD01BE01080094
:1004900020003B083C04031D572A8031A92021007D
:1004A000CE00FE304E0282310319572A4D2A803188
:1004B000A9202100CA002000BB0A0319BC0A3B087E
:1004C000A00002303C0220048231031D702ABB01CF
:1004D000BC01BD0A0319BE0A8031A9208031A920C0
:1004E00021004A0808000E2222000E1708002A08E0
:1004F000B0002B08B100B401B501832A48222100C5
:10050000B40A0319B50A340830022000A000210003
:1005100035083102200020048231031D7E2A0800A4
:10052000080081313A212100A0010F302005200070
:10053000A000F030240015052000200424009500C0
:10054000FA108231EC2AC801C90120006808210094
:10055000CA00200069082100CB0020006A082100A1
:10056000CC0020006B082100CD0023222100C70110
:10057000823148222000B4003F30840085012100F0
:10058000470884072000340880002100C70A203073
:1005900047028231031DB82A480845022000A00006
:1005A00021004908460220002004031DD82AEB2A16
:1005B00020302100C8070030C93DFA18B62A490882
:1005C0007102031DE52A480870020319E92A03187D
:1005D000B62A8231EB2A732AF201F3018431552CB9
:1005E000720873040319F82A2030F2070030F33D33
:1005F00072082100C5007308C600A32220003F082E
:100600002100AA00E5302A028331031D0D2B203082
:10061000F2070030F33D8231F82A2A08031D142B1B
:10062000F201F3018231F82A42302A02C311031D7C
:100630000318C31554302A024312031D031C43162A
:10064000431EC311C31D472B0F3020004A05210054
:10065000B6000F303602031D472B40302A02B70088
:10066000B8010310370DB900380DBA000430FF008F
:100670000310B90DBA0DFF0B382B3908F2073A08F1
:10068000F33D7208C5007308C6008231A3225730BB
:10069000200047022100C3130319C3174130200073
:1006A00048022100441003194414441CC31356305B
:1006B000200049022100441003194414441CC313B0
:1006C000203020004A022100441003194414441C25
:1006D000C3138331C31F6D2B732B2030F2070030FF
:1006E000F33D8231F82AFA1C7E2B200053082100AA
:1006F000AE00200054082100AF00802BAE01AF01F6
:10070000200059082100AC0020005A082100AD004B
:1007100020005B08E0005C08E1005D08E2005E0884
:10072000E30066082100B600200067082100B7003A
:10073000B801B9010530FF000310B60DB70DB80DB3
:10074000B90DFF0B9C2B200064082100B607200088
:1007500065082100B73D00302000A0002100B83D11
:10076000200020082100B93D0130B602031CB70269
:10077000031CB802031CB90220006408A800650825
:10078000A900AA01AB01210036082000A000210029
:1007900037082000A100210038082000A200210015
:1007A00039082000A30080311F2020002C082100E0
:1007B000BF0020002D082100C00020002E082100CD
:1007C000C10020002F082100C2002000680821007D
:1007D0003F07B600200069082100403DB700200017
:1007E0006A082100413DB80020006B082100423D0D
:1007F000B9002C08BA002D08BB002E08BC002F0839
:10080000BD000230BA020030FF00031C7F0FBB02A4
:100810000030FF00031C7F0FBC020030FF00031CF0
:100820007F0FBD0220005F08A00021003A082000D1
:10083000A10021003B082000A20021003C0820006C
:10084000A30021003D082000A400803106202000E4
:1008500025082100BA00200026082100BB00200046
:1008600027082100BC00200028082100BD00360810
:100870003A072000EC00210037083B3D2000ED0046
:10088000210038083C3D2000EE00210039083D3DA4
:100890002000EF00080020001C159110911C512C25
:1008A0004E2C9110210091140800F401F501F6017D
:1008B000F701D22C3A1091183A143A1CCF2CFF3081
:1008C000240091001418652C622C11082000B90036
:1008D000B700FF302400910014186F2C6C2C110805
:1008E0002000B900B800370EA0003030A005CF308E
:1008F000250013052000200425009300031020008C
:10090000370C250091000310910C2000380EA00038
:100910003030A005CF3025001A0520002004250026
:100920009A0003102000380C250098000310980C42
:10093000F803780A0319F90378087904031DCD2C0C
:10094000FF30240091001418A62CA32C11082000BD
:10095000B900B700FF30240091001418B02CAD2C62
:1009600011082000B900B700FF30240091001418CE
:10097000BA2CB72C11082000B900FE303902031937
:10098000C22CB42CF8010130F9000130F402031C30
:10099000F502031CF602031CF70220009110300838
:1009A000A0000900CF302000180530389800B7307B
:1009B0009600D73097001814BA309B008B170B178E
:1009C0002100CA01CB01CC01CD0182312322C630E6
:1009D0002100AA000130AB00823177228231482207
:1009E0002000BF00823148222000C000823148220E
:1009F0002000C100823148222000C20082317322CF
:100A000020003F082100CA00200040082100CB0040
:100A1000200041082100CC00200042082100CD0028
:100A2000823123222100A401823148222000B40017
:100A30003F30840085012100240884072000340809
:100A400080002100A40A203024028531031D142DCA
:100A500020004A08E4004B08E5004C08DF0050087D
:100A6000E6005108E700D701D8015508FA15031D23
:100A7000FA1156087A16031D7A127A1EFA11FA1D17
:100A8000622DFA14823148222100A40082314822CA
:100A90002100A400823148222100A4008231482292
:100AA0002100A400823148222000D5008231482252
:100AB0002000D600823148222000D700823148220F
:100AC0002000D8004F08A0005508A1005608A20039
:100AD0005708A3005808A4008031062020002508EC
:100AE0002100A000200026082100A10020002708E6
:100AF0002100A200200028082100A30020004D08AA
:100B00002100A00720004E082100A13D0030200058
:100B1000A0002100A23D200020082100A33D2008C4
:100B200020005B07E8002100210820005C3DE9006F
:100B30002100220820005D3DEA002100230820005A
:100B40005E3DEB000310660DF000670DF100043010
:100B5000FF000310F00DF10D8531FF0BA92D82313F
:100B600073222100A001A1017A15FA117A12FA125A
:100B7000F8010130F900FD01FE010130A400A500DB
:100B80007A13200011187A1785317A1BE42D740826
:100B9000750476047704031DCE2DE42D7D08803A7C
:100BA000A0007E08803A20020319DB2D031CDB2DF8
:100BB00022000E16DD2D22000E12FE0A7D307E026E
:100BC000031DC02DFE01C02D1110B7309600D73087
:100BD00097007408750476047704FB15031DFB1158
:100BE000FA19FB158631FB1D472E210091102000BC
:100BF0001C119110FA11823173228231F0222000EF
:100C00006C082100CA0020006D082100CB002000E4
:100C10006E082100CC0020006F082100CD00823139
:100C20002322200060082100A60020006108210086
:100C3000A700200062082100A8002000630821000E
:100C4000A9003030A6027530FF00031C7F0FA702F9
:100C50000030FF00031C7F0FA8020030FF00031CC0
:100C60007F0FA9022708F4002808F5002908F600DC
:100C7000F7010310F60CF50CF40C2C30AA00AB01B4
:100C800082317722EA30F800F90184314B242100C7
:100C90002508FD077D08803A2000A000FD302002D5
:100CA00086310319592E031C592E21002409013EB7
:100CB000A5007D08031D5F2E21002408A50021004A
:100CC000911C652E0130A400672E0330A400FC1394
:100CD00020008C19FC17FB137A19712EFC1BFB17D3
:100CE000732EFC1FFB17FB1F942EFC1F942E00304D
:100CF00021002102031D7E2E0A302002FB1303195E
:100D0000832E0318FB1700302102031D892E823029
:100D10002002FC1003198E2E031CFC14FC1CFB1378
:100D2000FB1BFA15A001A1017A11FC1B7A15FC1B13
:100D30009D2E2100A00A0319A10A003021002102E2
:100D4000031DA42E783020020319A92E031CA92EFE
:100D50007A16FA1DB02E9118B02E9114FA117A124B
:100D60007C13FA1AB62E7A1A7C17B82E7A1E7C17C4
:100D70007C1FBD2E7A1EBD2E9110FA127A1AFA1619
:040D80008531C02DCC
:020000040001F9
:02000E00AC093B
:02001000FF1FD0
:00000001FF
