:020000040000FA
:0400000080315C28C7
:0800080080315728A501A60173
:10001000A7010830B3000310A50DA60DA70DA80D6C
:100020000310A00D031C1C282108A5072208A63DCB
:100030002308A73D2408A83DB30B0B280800203057
:10004000B300A401A501A601A7010310AC0DAD0DDD
:10005000AE0DAF0D0310A00DA10DA20DA30DA40DAB
:10006000A50DA60DA70D27082B02031D4128260864
:100070002A02031D412825082902031D41282408BE
:10008000280203194528031854282808A40229081F
:10009000031C290FA5022A08031C2A0FA6022B08FD
:1000A000031C2B0FA7022C14B30B252808002000DB
:1000B0002008B0008431632CFC3021009905C33046
:1000C00019053C38990019179917C1309705230075
:1000D0008C018E0121009D019E019F0104302200B0
:1000E000910092010430930094012000EE30A000B2
:1000F0004930A1001530A2008031A20B7D2880314B
:10010000A10B7A288031A00B782800000000FC3079
:100110001C0501389C002100951324008C15270034
:100120009A12C0302C00930021008E12C0302C0097
:10013000960021008E118C1222000C1621000C1248
:10014000DF282100D80024009100951BFF341418EB
:10015000AA28A72811080800D700A128FF30A1204D
:100160002100D7000800AA00240095019413210063
:100170002A08031DBF28240015121417D1282A03AA
:10018000031DC628240015121413D12802302A0298
:10019000031DCE28240015161417D1282400151687
:1001A00014130F3021002C052000A000F030240093
:1001B00015052000200424009500951608008E14D3
:1001C0000E110E100230AC000030B3202000BB0135
:1001D000BC01BD01BE017A108231952ACF004F08C3
:1001E000031DF5289530D500FE2808304F02031D69
:1001F000FC288730D500FE28FF30D5004030CF07DF
:10020000FF30AC2021004F088031AC202100530882
:100210008031AC20210052088031AC2021005108EF
:100220008031AC20210050088031AC2021005508DD
:100230008031AC202100D6018031AE202100D400D5
:10024000540A8131031925292A29D60A6430560215
:10025000031D1C295408080001302100BE003E087F
:1002600003193E290130D000D101D201D301013060
:100270008031EE202100BE0081312F2908002400AA
:10028000151214172100AA0122000E118E100E1053
:1002900020008130A0001D30A1008131A10B4E292A
:1002A0008131A00B4B29000022000C162100AC016B
:1002B000FF308031AC202100AC0A0B302C028131A0
:1002C000031D5829B0012A08031D9A2920008130F6
:1002D000A0001D30A1008131A10B6C298131A00B40
:1002E0006929000022000C1220007130A0000730A4
:1002F000A1008131A10B7A298131A00B772920003F
:100300000130A0008131A00B832900002100D00121
:10031000D101D201D30100308031EE202100AA00AA
:1003200022000C162100B00A643030028131031D16
:100330006329080022000C12AA302100D0000130ED
:10034000D100D201D30108308031EE202100AA0073
:1003500081312A1DB2297A1422000C122C2122008C
:100360000C160800B6018031AE202100AA00B60AA2
:10037000043036028131031DB32922000C16AA3045
:1003800021002A028231031D0F2A22000C122100B3
:10039000D001D101D201D30137308031EE202100CC
:1003A000AA00D001D101D2014030D30029308031E0
:1003B000EE202100AA002A088131031DC729D0019F
:1003C000D101D201D3013A308031EE202100AA00C0
:1003D0008031AE202100B20040303205B300330836
:1003E00081310319F5297A10F6297A148031AE206B
:1003F0002100AA008031AE202100AA008031AE2069
:100400002100AA00D0010230D100D201D301103066
:100410008031EE202100AA0022000C1608002200E4
:100420000C16080022000C122100CA01D001D101D3
:10043000D201D3010C308031EE202100CA0A0430F1
:100440004A028231031D162A22000C1608002400DD
:100450001512141722000C127A1C3A2A21004C089B
:10046000CD004B08CC004A08CB00CA010310CB0DCD
:10047000CC0DCD0D21004A08D0004B08D1004C080E
:10048000D2004D08D30012308031EE202000BB0195
:10049000BC01BD01BE01080020003B083C04031D57
:1004A0005B2A8031AE202100CE00FE304E02823128
:1004B00003195B2A512A8031AE202100CA00200096
:1004C000BB0A0319BC0A3B08A00002303C0220040E
:1004D0008231031D742ABB01BC01BD0A0319BE0A87
:1004E0008031AE208031AE2021004A08080012225F
:1004F00022000C1608002A08B0002B08B100B40135
:10050000B501872A4C222100B40A0319B50A340820
:1005100030022000A0002100350831022000200414
:100520008231031D822A0800080081313F21210009
:10053000A0010F3020052000A000F0302400150598
:100540002000200424009500F03015050A3895009D
:1005500001309200FA108231F62AC801C901200048
:1005600068082100CA00200069082100CB00200093
:100570006A082100CC0020006B082100CD00272252
:100580002100C70182314C222000B4003F3084009A
:1005900085012100470884072000340880002100DD
:1005A000C70A203047028231031DC22A480845028B
:1005B0002000A00021004908460220002004031D5D
:1005C000E22AF52A20302100C8070030C93DFA1878
:1005D000C02A49087102031DEF2A48087002031956
:1005E000F32A0318C02A8231F52A772AF201F3018F
:1005F00084315E2C7208730483310319032B20307D
:10060000F2070030F33D72082100C5007308C600F0
:100610008231AD2220003F082100AA00E5302A02E5
:100620008331031D182B2030F2070030F33D032BDC
:100630002A08031D1E2BF201F301032B42302A026C
:10064000C311031D0318C31554302A024312031D9E
:10065000031C4316431EC311C31D512B0F30200032
:100660004A052100B6000F303602031D512B4030E1
:100670002A02B700B8010310370DB900380DBA00CF
:100680000430FF000310B90DBA0DFF0B422B3908DF
:10069000F2073A08F33D7208C5007308C6008231BC
:1006A000AD225730200047022100C3130319C3179E
:1006B0004130200048022100441003194414441C16
:1006C000C31356302000490221004410031944147A
:1006D000441CC313203020004A0221004410031997
:1006E0004414441CC3138331C31F772B7C2B20304D
:1006F000F2070030F33D032BFA1C872B2000530830
:100700002100AE00200054082100AF00892BAE016B
:10071000AF01200059082100AC0020005A08210038
:10072000AD0020005B08E0005C08E1005D08E2002D
:100730005E08E30066082100B6002000670821007B
:10074000B700B801B9010530FF000310B60DB70DB1
:10075000B80DB90DFF0BA52B200064082100B607CA
:10076000200065082100B73D00302000A0002100D6
:10077000B83D200020082100B93D0130B602031C1D
:10078000B702031CB802031CB90220006408A800C9
:100790006508A900AA01AB01210036082000A000CD
:1007A000210037082000A100210038082000A20005
:1007B000210039082000A30080311F2020002C08D0
:1007C0002100BF0020002D082100C00020002E08BD
:1007D0002100C10020002F082100C200200068086D
:1007E00021003F07B600200069082100403DB70006
:1007F00020006A082100413DB80020006B0821005C
:10080000423DB9002C08BA002D08BB002E08BC00E0
:100810002F08BD000230BA020030FF00031C7F0F1A
:10082000BB020030FF00031C7F0FBC020030FF0042
:10083000031C7F0FBD0220005F08A00021003A08C2
:100840002000A10021003B082000A20021003C085C
:100850002000A30021003D082000A40080310620D4
:10086000200025082100BA00200026082100BB0036
:10087000200027082100BC00200028082100BD001E
:1008800036083A072000EC00210037083B3D2000E5
:10089000ED00210038083C3D2000EE002100390821
:1008A0003D3D2000EF00080020001C159110911C18
:1008B0005A2C572C9110210091140800F401F501D5
:1008C000F601F701E12C3A1091183A143A1CDE2C8B
:1008D000FF302400910014186E2C6B2C110820009E
:1008E000B900B700FF30240091001418782C752C43
:1008F00011082000B900B800370CA000A00C200C93
:10090000A000C030A0053F302C00110520002004BD
:100910002C00910003102000370C2C0092000310D3
:10092000920C2000380CA000A00C200CA000C030BD
:10093000A0053F302C001405200020042C0094005A
:1009400003102000380C2C0095000310950CF803C0
:10095000780A0319F90378087904031DDC2CFF30A9
:10096000240091001418B52CB22C11082000B900F5
:10097000B700FF30240091001418BF2CBC2C1108C4
:100980002000B900B700FF30240091001418C92CD2
:10099000C62C11082000B900FE3039020319D12CF1
:1009A000C32CF8010130F9000130F402031CF502F8
:1009B000031CF602031CF702200091103008A0006F
:1009C0000900CF30200018053038980067309600B5
:1009D000C5309700181443309B008B170B1721006C
:1009E000CA01CB01CC01CD0182312722C6302100C2
:1009F000AA000130AB0082317B2282314C222000E0
:100A0000BF0082314C222000C00082314C222000E5
:100A1000C10082314C222000C200823177222000A6
:100A20003F082100CA00200040082100CB00200020
:100A300041082100CC00200042082100CD00823175
:100A400027222100A40182314C222000B4003F3033
:100A500084008501210024088407200034088000D8
:100A60002100A40A203024028531031D232D2000FB
:100A70004A08E4004B08E5004C08DF005008E60097
:100A80005108E700D701D8015508FA15031DFA11DE
:100A900056087A16031D7A127A1EFA11FA1D712D64
:100AA000FA1482314C222100A40082314C22210010
:100AB000A40082314C222100A40082314C2221006A
:100AC000A40082314C222000D50082314C2220002B
:100AD000D60082314C222000D70082314C222000E7
:100AE000D8004F08A0005508A1005608A2005708DA
:100AF000A3005808A400803106202000250821000A
:100B0000A000200026082100A100200027082100C5
:100B1000A200200028082100A30020004D08210089
:100B2000A00720004E082100A13D00302000A000B9
:100B30002100A23D200020082100A33D2008200024
:100B40005B07E8002100210820005C3DE90021004E
:100B5000220820005D3DEA002100230820005E3DC0
:100B6000EB000310660DF000670DF1000430FF008C
:100B70000310F00DF10D8531FF0BB82D8231772276
:100B80002100A001A1017A15FA117A12FA12F801D6
:100B90000130F900FD01FE010130A400A5007A1327
:100BA000200011187A1785317A1BF32D740875040B
:100BB00076047704031DDD2DF32D7D08803AA00017
:100BC0007E08803A20020319EA2D031CEA2D220038
:100BD0008C16EC2D22008C12FE0A7D307E02031D45
:100BE000CF2DFE01CF2D111067309600C530970034
:100BF0007408750476047704FB15031DFB11FA19BC
:100C0000FB158631FB1D562E2100911020001C1172
:100C10009110FA11823177228231FA2220006C0879
:100C20002100CA0020006D082100CB0020006E08C2
:100C30002100CC0020006F082100CD008231272246
:100C4000200060082100A600200061082100A70004
:100C5000200062082100A800200063082100A900EC
:100C60003030A6027530FF00031C7F0FA702003052
:100C7000FF00031C7F0FA8020030FF00031C7F0F42
:100C8000A9022708F4002808F5002908F600F70152
:100C90000310F60CF50CF40C2C30AA00AB018231D9
:100CA0007B22EA30F800F901843154242100250820
:100CB000FD077D08803A2000A000FD30200286312B
:100CC0000319682E031C682E21002409013EA5008B
:100CD0007D08031D6E2E21002408A5002100911C13
:100CE000742E0130A400762E0330A400FC132000E3
:100CF0008C19FC17FB137A19802EFC1BFB17822E14
:100D0000FC1FFB17FB1FA32EFC1FA32E003021008E
:100D10002102031D8D2E0A302002FB130319922E8F
:100D20000318FB1700302102031D982E8230200289
:100D3000FC1003199D2E031CFC14FC1CFB13FB1B55
:100D4000FA15A001A1017A11FC1B7A15FC1BAC2E2F
:100D50002100A00A0319A10A003021002102031D6D
:100D6000B32E783020020319B82E031CB82E7A1641
:100D7000FA1DBF2E9118BF2E9114FA117A127C130E
:100D8000FA1AC52E7A1A7C17C72E7A1E7C177C1F7A
:100D9000CC2E7A1ECC2E9110FA127A1AFA168531C0
:020DA000CF2D55
:020000040001F9
:02000E00AC093B
:02001000CF1E01
:00000001FF
