:020000040000FA
:0400000080315C28C7
:0800080080315728A501A60173
:10001000A7010830B3000310A50DA60DA70DA80D6C
:100020000310A00D031C1C282108A5072208A63DCB
:100030002308A73D2408A83DB30B0B280800203057
:10004000B300A401A501A601A7010310AC0DAD0DDD
:10005000AE0DAF0D0310A00DA10DA20DA30DA40DAB
:10006000A50DA60DA70D27082B02031D4128260864
:100070002A02031D412825082902031D41282408BE
:10008000280203194528031854282808A40229081F
:10009000031C290FA5022A08031C2A0FA6022B08FD
:1000A000031C2B0FA7022C14B30B252808002000DB
:1000B0002008B0008431752C873021001905703874
:1000C0009900C03018051F389800C13097052300EB
:1000D0008C018D018E0121009D019E019F01043044
:1000E00022009100920104309300940120005630C8
:1000F000A000BC30A1000F30A2008031A20B7E28EE
:100100008031A10B7B288031A00B79282100951329
:1001100024008C150D168D1626008C010C303C0029
:10012000A10012303D00A70010309E000C30A50049
:100130000D30A3000C302500930021008E120C30EE
:1001400025009A0021008E110E128E1022000E172B
:1001500021000E13E9282100D80024009100951BEE
:10016000FF341418B428B12811080800D700AB28B0
:10017000FF30AB202100D7000800AA002400950121
:10018000941321002A08031DC928240015121417EE
:10019000DB282A03031DD028240015121413DB28A2
:1001A00002302A02031DD828240015161417DB2854
:1001B0002400151614130F3021002C052000A00078
:1001C000F030240015052000200424009500951629
:1001D00008000D168E130D130230AC000030BD2048
:1001E0002000BB01BC01BD01BE017A108231A42AEE
:1001F000CF004F088131031D01299530D500813191
:100200000B2908304F028131031D09298730D500A1
:100210000B29FF30D5004030CF07FF308031B620AA
:1002200021004F088031B620210053088031B620CC
:10023000210052088031B620210051088031B620BB
:10024000210050088031B620210055088031B620A9
:100250002100D6018031B8202100D400540A813118
:10026000031933293829D60A64305602031D2A2976
:100270005408080001302100BE003E0803194C2933
:100280000130D000D101D201D30101308031F820FA
:100290002100BE0081313D290800240015121417E9
:1002A0002100AA0122008E130D120D132000E5304B
:1002B000A0000A30A1008131A10B5C298131A00B83
:1002C0005929000000000000000022000E17210044
:1002D000AC01FF308031B6202100AC0A0B302C027B
:1002E0008131031D6929B0012A08031DA9292000B5
:1002F000E530A0000A30A1008131A10B7D298131B8
:10030000A00B7A29000000000000000022000E135C
:100310002000AF30A0000230A1008131A10B8E2956
:100320008131A00B8B29000000002100D001D101F8
:10033000D201D30100308031F8202100AA00220030
:100340000E172100B00A643030028131031D742978
:10035000080022000E13AA302100D0000130D10085
:10036000D201D30108308031F8202100AA00813168
:100370002A1DC1297A1422000E133A2122000E17D9
:100380000800B6018031B8202100AA00B60A043066
:1003900036028131031DC22922000E17AA30210026
:1003A0002A028231031D1E2A22000E132100D001D1
:1003B000D101D201D30137308031F8202100AA00C9
:1003C000D001D101D2014030D30029308031F82052
:1003D0002100AA002A088131031DD629D001D101AC
:1003E000D201D3013A308031F8202100AA008031B7
:1003F000B8202100B20040303205B300330882310A
:100400000319042A7A10052A7A148031B8202100B1
:10041000AA008031B8202100AA008031B820210034
:10042000AA00D0010230D100D201D30110308031B6
:10043000F8202100AA0022000E17080022000E1743
:10044000080022000E132100CA01D001D101D201FF
:10045000D3010C308031F8202100CA0A04304A024E
:100460008231031D252A22000E17080024001512D0
:10047000141722000E137A1C492A21004C08CD00C3
:100480004B08CC004A08CB00CA010310CB0DCC0DA1
:10049000CD0D21004A08D0004B08D1004C08D200F5
:1004A0004D08D30012308031F8202000BB01BC0180
:1004B000BD01BE01080020003B083C04031D6A2A60
:1004C0008031B8202100CE00FE304E028231031967
:1004D0006A2A602A8031B8202100CA002000BB0AA5
:1004E0000319BC0A3B08A00002303C022004823100
:1004F000031D832ABB01BC01BD0A0319BE0A80315A
:10050000B8208031B82021004A08080021222200AA
:100510000E1708002A08B0002B08B100B401B5017D
:10052000962A5B222100B40A0319B50A3408300266
:100530002000A00021003508310220002004823173
:10054000031D912A0800080081314D212100A001DE
:100550000F3020052000A000F030240015052000F9
:10056000200424009500F03015050A38950001306C
:100570009200FA108331092BC801C90120006808D4
:100580002100CA00200069082100CB0020006A0871
:100590002100CC0020006B082100CD003622210074
:1005A000C70182315B222000B4003F308400850106
:1005B0002100470884072000340880002100C70A72
:1005C000203047028231031DD12A4808450220000D
:1005D000A00021004908460220002004031DF22A41
:1005E0008331072B20302100C8070030C93DFA189D
:1005F000CF2A49087102031DFF2A4808700283317F
:100600000319052B82310318CF2A8331072B82313E
:10061000862AF201F3018431702C720873040319E5
:10062000152B2030F2070030F33D72082100C50081
:100630007308C6008231BC2220003F082100AA00B6
:10064000E5302A028331031D2A2B2030F2070030C7
:10065000F33D152B2A08031D302BF201F301152B56
:1006600042302A02C311031D0318C31554302A0255
:100670004312031D031C4316431EC311C31D632BEA
:100680000F3020004A052100B6000F303602031D4E
:10069000632B40302A02B700B8010310370DB900B0
:1006A000380DBA000430FF000310B90DBA0DFF0B6E
:1006B000542B3908F2073A08F33D7208C500730855
:1006C000C6008231BC225730200047022100C313EC
:1006D0000319C317413020004802210044100319B8
:1006E0004414441CC3135630200049022100441016
:1006F00003194414441CC313203020004A02210073
:10070000441003194414441CC3138331C31F892BA1
:100710008E2B2030F2070030F33D152BFA1C992B5D
:10072000200053082100AE00200054082100AF0033
:100730009B2BAE01AF01200059082100AC00200026
:100740005A082100AD0020005B08E0005C08E100D1
:100750005D08E2005E08E30066082100B6002000A4
:1007600067082100B700B801B9010530FF00031088
:10077000B60DB70DB80DB90DFF0BB72B20006408EF
:100780002100B607200065082100B73D0030200099
:10079000A0002100B83D200020082100B93D013013
:1007A000B602031CB702031CB802031CB9022000E6
:1007B0006408A8006508A900AA01AB012100360859
:1007C0002000A000210037082000A10021003808E7
:1007D0002000A200210039082000A30080311F2042
:1007E00020002C082100BF0020002D082100C0009F
:1007F00020002E082100C10020002F082100C20087
:100800002000680821003F07B60020006908210089
:10081000403DB70020006A082100413DB80020009B
:100820006B082100423DB9002C08BA002D08BB001E
:100830002E08BC002F08BD000230BA020030FF00B5
:10084000031C7F0FBB020030FF00031C7F0FBC02A4
:100850000030FF00031C7F0FBD0220005F08A000D6
:1008600021003A082000A10021003B082000A2003E
:1008700021003C082000A30021003D082000A40026
:1008800080310620200025082100BA00200026081B
:100890002100BB00200027082100BC002000280800
:1008A0002100BD0036083A072000EC00210037087F
:1008B0003B3D2000ED00210038083C3D2000EE00CB
:1008C000210039083D3D2000EF00080020001C15E4
:1008D0009110911C6C2C692C91102100911408002E
:1008E000F401F501F601F701ED2C3A1091183A14D4
:1008F0003A1CEA2CFF30240091001418802C7D2C27
:1009000011082000B900B700FF302400910014182E
:100910008A2C872C11082000B900B800370EA000DF
:100920003030A005CF30250013052000200425001D
:10093000930003102000370C250091000310910C48
:100940002000380EA0003030A005CF3025001A0559
:100950002000200425009A0003102000380C2500F8
:1009600098000310980CF803780A0319F903780823
:100970007904031DE82CFF30240091001418C12CC9
:10098000BE2C11082000B900B700FF3024009100F0
:100990001418CB2CC82C11082000B900B700FF3068
:1009A000240091001418D52CD22C11082000B90075
:1009B000FE3039020319DD2CCF2CF8010130F9008B
:1009C0000130F402031CF502031CF602031CF702BB
:1009D000200091103008A0000900CF302000180539
:1009E00030389800B7309600D73097001814BA30D6
:1009F0009B008B170B172100CA01CB01CC01CD0145
:100A000082313622C6302100AA000130AB0082318B
:100A10008A2282315B222000BF0082315B222000CB
:100A2000C00082315B222000C10082315B222000A5
:100A3000C2008231862220003F082100CA00200027
:100A400040082100CB00200041082100CC002000FC
:100A500042082100CD00823136222100A4018231DA
:100A60005B222000B4003F3084008501210024086F
:100A700084072000340880002100A40A20302402CA
:100A80008531031D2F2D20004A08E4004B08E500A6
:100A90004C08DF005008E6005108E700D701D801F4
:100AA0005508FA15031DFA1156087A16031D7A1215
:100AB0007A1EFA11FA1D7D2DFA1482315B22210073
:100AC000A40082315B222100A40082315B2221003C
:100AD000A40082315B222100A40082315B2220002D
:100AE000D50082315B222000D60082315B222000BB
:100AF000D70082315B222000D8004F08A0005508A3
:100B0000A1005608A2005708A3005808A40080318D
:100B10000620200025082100A00020002608210032
:100B2000A100200027082100A200200028082100A1
:100B3000A30020004D082100A00720004E0821003E
:100B4000A13D00302000A0002100A23D200020088F
:100B50002100A33D200820005B07E80021002108B8
:100B600020005C3DE9002100220820005D3DEA00F4
:100B70002100230820005E3DEB000310660DF0000D
:100B8000670DF1000430FF000310F00DF10D853109
:100B9000FF0BC42D823186222100A001A1017A150C
:100BA000FA117A12FA12F8010130F900FD01FE0182
:100BB0000130A400A5007A13200011187A1785319E
:100BC0007A1BFF2D7408750476047704031DE92D44
:100BD000FF2D7D08803AA0007E08803A200203198C
:100BE000F62D031CF62D22000E16F82D22000E12F3
:100BF000FE0A7D307E02031DDB2DFE01DB2D111070
:100C0000B7309600D73097007408750476047704DF
:100C1000FB15031DFB11FA19FB158631FB1D622E16
:100C20002100911020001C119110FA1182318622AE
:100C300083310D2320006C082100CA0020006D08BC
:100C40002100CB0020006E082100CC0020006F089E
:100C50002100CD0082313622200060082100A6004C
:100C6000200061082100A700200062082100A800E0
:100C7000200063082100A9003030A6027530FF0073
:100C8000031C7F0FA7020030FF00031C7F0FA80288
:100C90000030FF00031C7F0FA9022708F40028087A
:100CA000F5002908F600F7010310F60CF50CF40C1A
:100CB0002C30AA00AB0182318A22EA30F800F90117
:100CC0008431662421002508FD077D08803A200034
:100CD000A000FD30200286310319742E031C742EEF
:100CE00021002409013EA5007D08031D7A2E210064
:100CF0002408A5002100911C802E0130A400822E22
:100D00000330A400FC1320008C19FC17FB137A1984
:100D10008C2EFC1BFB178E2EFC1FFB17FB1FAF2E10
:100D2000FC1FAF2E003021002102031D992E0A3036
:100D30002002FB1303199E2E0318FB17003021021B
:100D4000031DA42E82302002FC100319A92E031CBF
:100D5000FC14FC1CFB13FB1BFA15A001A1017A116A
:100D6000FC1B7A15FC1BB82E2100A00A0319A10A4E
:100D7000003021002102031DBF2E7830200203190C
:100D8000C42E031CC42E7A16FA1DCB2E9118CB2E1E
:100D90009114FA117A127C13FA1AD12E7A1A7C174E
:100DA000D32E7A1E7C177C1FD82E7A1ED82E911037
:0A0DB000FA127A1AFA168531DB2DCB
:020000040001F9
:02000E00AC093B
:02001000FF1FD0
:00000001FF
