:020000040000FA
:0400000080315C28C7
:0800080080315728A501A60173
:10001000A7010830B3000310A50DA60DA70DA80D6C
:100020000310A00D031C1C282108A5072208A63DCB
:100030002308A73D2408A83DB30B0B280800203057
:10004000B300A401A501A601A7010310AC0DAD0DDD
:10005000AE0DAF0D0310A00DA10DA20DA30DA40DAB
:10006000A50DA60DA70D27082B02031D4128260864
:100070002A02031D412825082902031D41282408BE
:10008000280203194528031854282808A40229081F
:10009000031C290FA5022A08031C2A0FA6022B08FD
:1000A000031C2B0FA7022C14B30B252808002000DB
:1000B0002008B0008431772C873021001905703872
:1000C0009900C03018051F389800C13097052300EB
:1000D0008C018E0121009D019E019F0104302200B0
:1000E0009000910104309400950120005630A0004A
:1000F000BC30A1000F30A2008031A20B7D288031DE
:10010000A10B7A288031A00B7828210095132400B8
:100110008C158E1426008C0111303C00A100143087
:100120003D00A2001230A0000C30A5000E30A3004C
:10013000F03020001E0501389E008C302500930011
:10014000920121008E1280302C00990021008E1126
:100150008C120C1122000C1621000C12ED2821002B
:10016000D80024009100951BFF341418B828B52836
:1001700011080800D700AF28FF30AF202100D700BA
:100180000800AA0024009501941321002A08031DE9
:10019000CD28240015121417DF282A03031DD428A4
:1001A000240015121413DF2802302A02031DDC2854
:1001B000240015161417DF282400151614130F3009
:1001C00021002C052000A000F0302400150520009F
:1001D000200424009500951608008E140E110E10B0
:1001E0000230AC000030C1202000BB01BC01BD01C9
:1001F000BE017A108231A62ACF004F088131031D3B
:1002000004299530D5000D2908304F02031D0B2914
:100210008730D5000D29FF30D5004030CF07FF30A3
:100220008031BA2021004F088031BA2021005308C4
:100230008031BA20210052088031BA2021005108B3
:100240008031BA20210050088031BA2021005508A1
:100250008031BA202100D6018031BC202100D40099
:10026000540A8131031935293A29D60A64305602D5
:10027000031D2C295408080001302100BE003E084F
:1002800003194E290130D000D101D201D301013030
:100290008031FC202100BE0081313F29080024006C
:1002A000151214172100AA0122000E118E100E1033
:1002B0002000E530A0000A30A1008131A10B5E29A9
:1002C0008131A00B5B29000000000000000022002B
:1002D0000C162100AC01FF308031BA202100AC0A9D
:1002E0000B302C028131031D6B29B0012A08031D3C
:1002F000AB292000E530A0000A30A1008131A10B1C
:100300007F298131A00B7C29000000000000000043
:1003100022000C122000AF30A0000230A100813179
:10032000A10B90298131A00B8D2900000000210034
:10033000D001D101D201D30100308031FC20210055
:10034000AA0022000C162100B00A6430300281316C
:10035000031D7629080022000C12AA302100D000CB
:100360000130D100D201D30108308031FC202100BE
:10037000AA0081312A1DC3297A1422000C123C21C3
:1003800022000C160800B6018031BC202100AA0012
:10039000B60A043036028131031DC42922000C162E
:1003A000AA3021002A028231031D202A22000C12C9
:1003B0002100D001D101D201D30137308031FC209E
:1003C0002100AA00D001D101D2014030D300293050
:1003D0008031FC202100AA002A088131031DD82980
:1003E000D001D101D201D3013A308031FC2021006B
:1003F000AA008031BC202100B20040303205B30099
:10040000330882310319062A7A10072A7A148031B8
:10041000BC202100AA008031BC202100AA0080312C
:10042000BC202100AA00D0010230D100D201D301AA
:1004300010308031FC202100AA0022000C16080098
:1004400022000C16080022000C122100CA01D00163
:10045000D101D201D3010C308031FC202100CA0A25
:1004600004304A028231031D272A22000C1608009C
:1004700024001512141722000C127A1C4B2A21009A
:100480004C08CD004B08CC004A08CB00CA01031031
:10049000CB0DCC0DCD0D21004A08D0004B08D1006A
:1004A0004C08D2004D08D30012308031FC202000CF
:1004B000BB01BC01BD01BE01080020003B083C049B
:1004C000031D6C2A8031BC202100CE00FE304E027C
:1004D000823103196C2A622A8031BC202100CA00B3
:1004E0002000BB0A0319BC0A3B08A00002303C02F2
:1004F00020048231031D852ABB01BC01BD0A0319FA
:10050000BE0A8031BC208031BC2021004A0808008E
:10051000232222000C1608002A08B0002B08B10084
:10052000B401B501982A5D222100B40A0319B50A65
:10053000340830022000A0002100350831022000DC
:1005400020048231031D932A0800080081314F21C5
:100550002100A0010F3020052000A000F030240071
:1005600015052000200424009500F03015050A38F8
:10057000950001309200FA1083310B2BC801C9019C
:10058000200068082100CA00200069082100CB0073
:1005900020006A082100CC0020006B082100CD005B
:1005A00038222100C70182315D222000B4003F3093
:1005B000840085012100470884072000340880005A
:1005C0002100C70A203047028231031DD32A480880
:1005D00045022000A0002100490846022000200416
:1005E000031DF42A8331092B20302100C807003075
:1005F000C93DFA18D12A490871028331031D022B23
:10060000480870020319072B82310318D12A83315D
:10061000092B8231882AF201F3018431722C72088D
:1006200073040319172B2030F2070030F33D7208D2
:100630002100C5007308C6008231BE2220003F0899
:100640002100AA00E5302A028331031D2C2B203023
:10065000F2070030F33D172B2A08031D322BF2015D
:10066000F301172B42302A02C311031D0318C315CF
:1006700054302A024312031D031C4316431EC311A8
:10068000C31D652B0F3020004A052100B6000F3036
:100690003602031D652B40302A02B700B801031053
:1006A000370DB900380DBA000430FF000310B90D42
:1006B000BA0DFF0B562B3908F2073A08F33D7208C2
:1006C000C5007308C6008231BE22573020004702A1
:1006D0002100C3130319C317413020004802210031
:1006E000441003194414441CC3135630200049021B
:1006F0002100441003194414441CC313203020006B
:100700004A022100441003194414441CC3138331CA
:10071000C31F8B2B902B2030F2070030F33D172B9B
:10072000FA1C9B2B200053082100AE002000540827
:100730002100AF009D2BAE01AF0120005908210020
:10074000AC0020005A082100AD0020005B08E0004A
:100750005C08E1005D08E2005E08E3006608210035
:10076000B600200067082100B700B801B9010530C4
:10077000FF000310B60DB70DB80DB90DFF0BB92B67
:10078000200064082100B607200065082100B73D5D
:1007900000302000A0002100B83D200020082100EA
:1007A000B93D0130B602031CB702031CB802031C9A
:1007B000B90220006408A8006508A900AA01AB01DD
:1007C000210036082000A000210037082000A100E9
:1007D000210038082000A200210039082000A300D1
:1007E00080311F2020002C082100BF0020002D0890
:1007F0002100C00020002E082100C10020002F0889
:100800002100C2002000680821003F07B600200038
:1008100069082100403DB70020006A082100413DE1
:10082000B80020006B082100423DB9002C08BA0036
:100830002D08BB002E08BC002F08BD000230BA02F4
:100840000030FF00031C7F0FBB020030FF00031CC1
:100850007F0FBC020030FF00031C7F0FBD02200091
:100860005F08A00021003A082000A10021003B08F9
:100870002000A20021003C082000A30021003D0828
:100880002000A40080310620200025082100BA00A5
:10089000200026082100BB00200027082100BC0002
:1008A000200028082100BD0036083A072000EC008F
:1008B000210037083B3D2000ED00210038083C3D79
:1008C0002000EE00210039083D3D2000EF00080027
:1008D00020009C179110911C6E2C6B2C9110210004
:1008E00091140800F401F501F601F701E32C3A1028
:1008F00091183A143A1CE02CFF302400910014188F
:10090000822C7F2C11082000B900B700FF30240092
:10091000910014188C2C892C11082000B900B80003
:100920003708250091002000380CA000A00C200CF6
:10093000A000C030A0053F302C0017052000200487
:100940002C00970003102000380C2C009800031096
:10095000980CF803780A0319F90378087904031D41
:10096000DE2CFF30240091001418B72CB42C110891
:100970002000B900B700FF30240091001418C12CEA
:10098000BE2C11082000B900B700FF3024009100F0
:100990001418CB2CC82C11082000B900FE303902E5
:1009A0000319D32CC52CF8010130F9000130F402F1
:1009B000031CF502031CF602031CF7022000911031
:1009C0003008A0000900CF3020001805303898000A
:1009D000B7309600D73097001814BA309B008B17A9
:1009E0000B172100CA01CB01CC01CD018231382285
:1009F000C6302100AA000130AB0082318C22823146
:100A00005D222000BF0082315D222000C0008231C3
:100A10005D222000C10082315D222000C2008231AF
:100A2000882220003F082100CA0020004008210041
:100A3000CB00200041082100CC002000420821000A
:100A4000CD00823138222100A40182315D222000B4
:100A5000B4003F3084008501210024088407200071
:100A6000340880002100A40A203024028531031DAF
:100A7000252D20004A08E4004B08E5004C08DF0063
:100A80005008E6005108E700D701D8015508FA15CB
:100A9000031DFA1156087A16031D7A127A1EFA11EE
:100AA000FA1D732DFA1482315D222100A4008231D7
:100AB0005D222100A40082315D222100A400823148
:100AC0005D222100A40082315D222000D500823108
:100AD0005D222000D60082315D222000D7008231C5
:100AE0005D222000D8004F08A0005508A10056083C
:100AF000A2005708A3005808A40080310620200057
:100B000025082100A000200026082100A1002000C7
:100B100027082100A200200028082100A3002000AF
:100B20004D082100A00720004E082100A13D003003
:100B30002000A0002100A23D200020082100A33DAC
:100B4000200820005B07E8002100210820005C3D10
:100B5000E9002100220820005D3DEA002100230871
:100B600020005E3DEB000310660DF000670DF10004
:100B70000430FF000310F00DF10D8531FF0BBA2D8D
:100B8000823188222100A001A1017A15FA117A127E
:100B9000FA12F8010130F900FD01FE010130A40054
:100BA000A5007A13200011187A1785317A1BF52DCC
:100BB0007408750476047704031DDF2DF52D7D0878
:100BC000803AA0007E08803A20020319EC2D031C15
:100BD000EC2D22008C16EE2D22008C12FE0A7D30A8
:100BE0007E02031DD12DFE01D12D1110B7309600CC
:100BF000D73097007408750476047704FB15031D3D
:100C0000FB11FA19FB158631FB1D582E210091109E
:100C100020009C139110FA118231882283310F2316
:100C200020006C082100CA0020006D082100CB00C4
:100C300020006E082100CC0020006F082100CD00AC
:100C400082313822200060082100A60020006108BF
:100C50002100A700200062082100A80020006308EE
:100C60002100A9003030A6027530FF00031C7F0F61
:100C7000A7020030FF00031C7F0FA8020030FF0016
:100C8000031C7F0FA9022708F4002808F500290893
:100C9000F600F7010310F60CF50CF40C2C30AA004A
:100CA000AB0182318C22EA30F800F90184316824EA
:100CB00021002508FD077D08803A2000A000FD30B6
:100CC0002002863103196A2E031C6A2E2100240992
:100CD000013EA5007D08031D702E21002408A500FB
:100CE0002100911C762E0130A400782E0330A40040
:100CF000FC1320008C19FC17FB137A19822EFC1BA5
:100D0000FB17842EFC1FFB17FB1FA52EFC1FA52E17
:100D1000003021002102031D8F2E0A302002FB1318
:100D20000319942E0318FB1700302102031D9A2E7D
:100D300082302002FC1003199F2E031CFC14FC1CA3
:100D4000FB13FB1BFA15A001A1017A11FC1B7A15FC
:100D5000FC1BAE2E2100A00A0319A10A00302100BD
:100D60002102031DB52E783020020319BA2E031C70
:100D7000BA2E7A16FA1DC12E9118C12E9114FA11AD
:100D80007A127C13FA1AC72E7A1A7C17C92E7A1E89
:100D90007C177C1FCE2E7A1ECE2E9110FA127A1A54
:060DA000FA168531D12D89
:020000040001F9
:02000E00AC093B
:02001000FF1FD0
:00000001FF
