:020000040000FA
:0400000080315C28C7
:0800080080315728A501A60173
:10001000A7010830B3000310A50DA60DA70DA80D6C
:100020000310A00D031C1C282108A5072208A63DCB
:100030002308A73D2408A83DB30B0B280800203057
:10004000B300A401A501A601A7010310AC0DAD0DDD
:10005000AE0DAF0D0310A00DA10DA20DA30DA40DAB
:10006000A50DA60DA70D27082B02031D4128260864
:100070002A02031D412825082902031D41282408BE
:10008000280203194528031854282808A40229081F
:10009000031C290FA5022A08031C2A0FA6022B08FD
:1000A000031C2B0FA7022C14B30B252808002000DB
:1000B0002008B0008431642CFC3021009905C33045
:1000C00019053C38990019179917C1309705230075
:1000D0008C018D018E0121009D019E019F01043044
:1000E0002200910092010430930094012000EE3030
:1000F000A0004930A1001530A2008031A20B7E285B
:100100008031A10B7B288031A00B792800000000F2
:10011000FC301C0501389C002100951324008C152F
:1001200027009A12C0302C00930021008E12C0309C
:100130002C00960021000E130E1222008E152100B5
:100140008E11E0282100D80024009100951BFF3477
:100150001418AB28A82811080800D700A228FF30DF
:10016000A2202100D7000800AA00240095019413C2
:1001700021002A08031DC028240015121417D228B4
:100180002A03031DC728240015121413D228023095
:100190002A02031DCF28240015161417D228240084
:1001A000151614130F3021002C052000A000F0308C
:1001B0002400150520002004240095009516080051
:1001C0000D168E130D130230AC000030B420200049
:1001D000BB01BC01BD01BE017A108231962ACF005D
:1001E0004F08031DF6289530D500FF2808304F0230
:1001F000031DFD288730D500FF28FF30D500403093
:10020000CF07FF30AD2021004F088031AD20210005
:1002100053088031AD20210052088031AD202100EB
:1002200051088031AD20210050088031AD202100DF
:1002300055088031AD202100D6018031AF2021004A
:10024000D400540A8131031926292B29D60A643097
:100250005602031D1D295408080001302100BE006C
:100260003E0803193F290130D000D101D201D3014A
:1002700001308031EF202100BE008131302908009B
:100280002400151214172100AA0122008E130D124A
:100290000D1320008130A0001D30A1008131A10B81
:1002A0004F298131A00B4C29000022008E1521001E
:1002B000AC01FF308031AD202100AC0A0B302C02A4
:1002C0008131031D5929B0012A08031D9B292000F3
:1002D0008130A0001D30A1008131A10B6D29813139
:1002E000A00B6A29000022008E1120007130A000AE
:1002F0000730A1008131A10B7B298131A00B782926
:1003000020000130A0008131A00B842900002100D1
:10031000D001D101D201D30100308031EF20210082
:10032000AA0022008E152100B00A6430300281310B
:10033000031D6429080022008E11AA302100D0007C
:100340000130D100D201D30108308031EF202100EB
:10035000AA0081312A1DB3297A1422008E112D2181
:1003600022008E150800B6018031AF202100AA00BE
:10037000B60A043036028131031DB42922008E15DD
:10038000AA3021002A028231031D102A22008E1178
:100390002100D001D101D201D30137308031EF20CB
:1003A0002100AA00D001D101D2014030D300293070
:1003B0008031EF202100AA002A088131031DC829BD
:1003C000D001D101D201D3013A308031EF20210098
:1003D000AA008031AF202100B20040303205B300C6
:1003E000330881310319F6297A10F7297A148031FC
:1003F000AF202100AA008031AF202100AA00803167
:10040000AF202100AA00D0010230D100D201D301D7
:1004100010308031EF202100AA0022008E15080044
:1004200022008E15080022008E112100CA01D00181
:10043000D101D201D3010C308031EF202100CA0A52
:1004400004304A028231031D172A22008E1508004B
:1004500024001512141722008E117A1C3B2A210049
:100460004C08CD004B08CC004A08CB00CA01031051
:10047000CB0DCC0DCD0D21004A08D0004B08D1008A
:100480004C08D2004D08D30012308031EF202000FC
:10049000BB01BC01BD01BE01080020003B083C04BB
:1004A000031D5C2A8031AF202100CE00FE304E02B9
:1004B000823103195C2A522A8031AF202100CA0000
:1004C0002000BB0A0319BC0A3B08A00002303C0212
:1004D00020048231031D752ABB01BC01BD0A03192A
:1004E000BE0A8031AF208031AF2021004A080800C9
:1004F000132222008E1508002A08B0002B08B10034
:10050000B401B501882A4D222100B40A0319B50AA5
:10051000340830022000A0002100350831022000FC
:1005200020048231031D832A080008008131402104
:100530002100A0010F3020052000A000F030240091
:1005400015052000200424009500F03015050A3818
:10055000950001309200FA108231F72AC801C901D2
:10056000200068082100CA00200069082100CB0093
:1005700020006A082100CC0020006B082100CD007B
:1005800028222100C70182314D222000B4003F30D3
:10059000840085012100470884072000340880007A
:1005A0002100C70A203047028231031DC32A4808B0
:1005B00045022000A0002100490846022000200436
:1005C000031DE32AF62A20302100C8070030C93D68
:1005D000FA18C12A49087102031DF02A480870025E
:1005E0000319F42A0318C12A8231F62A782AF20163
:1005F000F30184315F2C7208730483310319042BD7
:100600002030F2070030F33D72082100C500730866
:10061000C6008231AE2220003F082100AA00E5304A
:100620002A028331031D192B2030F2070030F33DDD
:10063000042B2A08031D1F2BF201F301042B423067
:100640002A02C311031D0318C31554302A02431292
:10065000031D031C4316431EC311C31D522B0F3031
:1006600020004A052100B6000F303602031D522B30
:1006700040302A02B700B8010310370DB900380D19
:10068000BA000430FF000310B90DBA0DFF0B432B65
:100690003908F2073A08F33D7208C5007308C6002E
:1006A0008231AE225730200047022100C3130319C4
:1006B000C31741302000480221004410031944149C
:1006C000441CC31356302000490221004410031972
:1006D0004414441CC313203020004A02210044105B
:1006E00003194414441CC3138331C31F782B7D2B7F
:1006F0002030F2070030F33D042BFA1C882B200039
:1007000053082100AE00200054082100AF008A2BBE
:10071000AE01AF01200059082100AC0020005A08AA
:100720002100AD0020005B08E0005C08E1005D08EE
:10073000E2005E08E30066082100B60020006708BA
:100740002100B700B801B9010530FF000310B60D54
:10075000B70DB80DB90DFF0BA62B200064082100C2
:10076000B607200065082100B73D00302000A0003A
:100770002100B83D200020082100B93D0130B6021B
:10078000031CB702031CB802031CB9022000640852
:10079000A8006508A900AA01AB01210036082000C5
:1007A000A000210037082000A10021003808200007
:1007B000A200210039082000A30080311F20200062
:1007C0002C082100BF0020002D082100C0002000BF
:1007D0002E082100C10020002F082100C2002000A7
:1007E000680821003F07B600200069082100403D4D
:1007F000B70020006A082100413DB80020006B08C6
:100800002100423DB9002C08BA002D08BB002E087B
:10081000BC002F08BD000230BA020030FF00031CEC
:100820007F0FBB020030FF00031C7F0FBC020030B3
:10083000FF00031C7F0FBD0220005F08A000210005
:100840003A082000A10021003B082000A20021005E
:100850003C082000A30021003D082000A4008031B6
:100860000620200025082100BA00200026082100CB
:10087000BB00200027082100BC0020002808210020
:10088000BD0036083A072000EC00210037083B3D48
:100890002000ED00210038083C3D2000EE00210042
:1008A00039083D3D2000EF00080020001C15911084
:1008B000911C5B2C582C9110210091140800F4011C
:1008C000F501F601F701E22C3A1091183A143A1C9E
:1008D000DF2CFF302400910014186F2C6C2C1108B1
:1008E0002000B900B700FF30240091001418792CC3
:1008F000762C11082000B900B800370CA000A00C1D
:10090000200CA000C030A0053F302C0011052000B5
:1009100020042C00910003102000370C2C009200C2
:100920000310920C2000380CA000A00C200CA0009A
:10093000C030A0053F302C001405200020042C00FE
:10094000940003102000380C2C0095000310950C27
:10095000F803780A0319F90378087904031DDD2CDC
:10096000FF30240091001418B62CB32C110820007D
:10097000B900B700FF30240091001418C02CBD2C22
:1009800011082000B900B700FF30240091001418AE
:10099000CA2CC72C11082000B900FE3039020319F7
:1009A000D22CC42CF8010130F9000130F402031CF0
:1009B000F502031CF602031CF70220009110300818
:1009C000A0000900CF3020001805303898006730AB
:1009D0009600C5309700181443309B008B170B17F7
:1009E0002100CA01CB01CC01CD0182312822C630C1
:1009F0002100AA000130AB0082317C2282314D22DD
:100A00002000BF0082314D222000C00082314D22E3
:100A10002000C10082314D222000C20082317822A4
:100A200020003F082100CA00200040082100CB0020
:100A3000200041082100CC00200042082100CD0008
:100A4000823128222100A40182314D222000B400ED
:100A50003F308400850121002408840720003408E9
:100A600080002100A40A203024028531031D242D9A
:100A700020004A08E4004B08E5004C08DF0050085D
:100A8000E6005108E700D701D8015508FA15031D03
:100A9000FA1156087A16031D7A127A1EFA11FA1DF7
:100AA000722DFA1482314D222100A40082314D2290
:100AB0002100A40082314D222100A40082314D2268
:100AC0002100A40082314D222000D50082314D2228
:100AD0002000D60082314D222000D70082314D22E5
:100AE0002000D8004F08A0005508A1005608A20019
:100AF0005708A3005808A4008031062020002508CC
:100B00002100A000200026082100A10020002708C5
:100B10002100A200200028082100A30020004D0889
:100B20002100A00720004E082100A13D0030200038
:100B3000A0002100A23D200020082100A33D2008A4
:100B400020005B07E8002100210820005C3DE9004F
:100B50002100220820005D3DEA002100230820003A
:100B60005E3DEB000310660DF000670DF1000430F0
:100B7000FF000310F00DF10D8531FF0BB92D82310F
:100B800078222100A001A1017A15FA117A12FA1235
:100B9000F8010130F900FD01FE010130A400A500BB
:100BA0007A13200011187A1785317A1BF42D7408F6
:100BB000750476047704031DDE2DF42D7D08803A3C
:100BC000A0007E08803A20020319EB2D031CEB2DB8
:100BD00022000E16ED2D22000E12FE0A7D307E023E
:100BE000031DD02DFE01D02D111067309600C530A9
:100BF00097007408750476047704FB15031DFB1138
:100C0000FA19FB158631FB1D572E2100911020008B
:100C10001C119110FA11823178228231FB222000BE
:100C20006C082100CA0020006D082100CB002000C4
:100C30006E082100CC0020006F082100CD00823119
:100C40002822200060082100A60020006108210061
:100C5000A700200062082100A800200063082100EE
:100C6000A9003030A6027530FF00031C7F0FA702D9
:100C70000030FF00031C7F0FA8020030FF00031CA0
:100C80007F0FA9022708F4002808F5002908F600BC
:100C9000F7010310F60CF50CF40C2C30AA00AB0194
:100CA00082317C22EA30F800F90184315524210098
:100CB0002508FD077D08803A2000A000FD302002B5
:100CC00086310319692E031C692E21002409013E77
:100CD000A5007D08031D6F2E21002408A50021001A
:100CE000911C752E0130A400772E0330A400FC1354
:100CF00020008C19FC17FB137A19812EFC1BFB17A3
:100D0000832EFC1FFB17FB1FA42EFC1FA42E0030FC
:100D100021002102031D8E2E0A302002FB1303192D
:100D2000932E0318FB1700302102031D992E8230E9
:100D30002002FC1003199E2E031CFC14FC1CFB1348
:100D4000FB1BFA15A001A1017A11FC1B7A15FC1BF3
:100D5000AD2E2100A00A0319A10A003021002102B2
:100D6000031DB42E783020020319B92E031CB92EAE
:100D70007A16FA1DC02E9118C02E9114FA117A120B
:100D80007C13FA1AC62E7A1A7C17C82E7A1E7C1784
:100D90007C1FCD2E7A1ECD2E9110FA127A1AFA16D9
:040DA0008531D02D9C
:020000040001F9
:02000E00AC093B
:02001000CF1E01
:00000001FF
