:020000040000FA
:0400000080315C28C7
:0800080080315728A501A60173
:10001000A7010830B3000310A50DA60DA70DA80D6C
:100020000310A00D031C1C282108A5072208A63DCB
:100030002308A73D2408A83DB30B0B280800203057
:10004000B300A401A501A601A7010310AC0DAD0DDD
:10005000AE0DAF0D0310A00DA10DA20DA30DA40DAB
:10006000A50DA60DA70D27082B02031D4128260864
:100070002A02031D412825082902031D41282408BE
:10008000280203194528031854282808A40229081F
:10009000031C290FA5022A08031C2A0FA6022B08FD
:1000A000031C2B0FA7022C14B30B252808002000DB
:1000B0002008B0008431722C873021001905703877
:1000C0009900C03018051F389800C13097052300EB
:1000D0008C018E0121009D019E019F0104302200B0
:1000E0009100920104309300940120005630A0004A
:1000F000BC30A1000F30A2008031A20B7D288031DE
:10010000A10B7A288031A00B7828210095132400B8
:100110008C158E1426008C0111303C00A100123089
:100120003D00A2001030A0000C30A5000D30A3004F
:100130000C302500930021008E120C3025009A000F
:1001400021008E118C120C1122000C1621000C12B1
:10015000E7282100D80024009100951BFF341418D3
:10016000B228AF2811080800D700A928FF30A9201D
:100170002100D7000800AA00240095019413210053
:100180002A08031DC728240015121417D9282A038A
:10019000031DCE28240015121413D92802302A0278
:1001A000031DD628240015161417D9282400151667
:1001B00014130F3021002C052000A000F030240083
:1001C00015052000200424009500951608008E14C3
:1001D0000E110E100230AC000030BB202000BB011D
:1001E000BC01BD01BE017A108231A12ACF004F08A7
:1001F000031DFE289530D5008131082908304F02B3
:100200008131031D06298730D5000829FF30D5002C
:100210004030CF07FF308031B42021004F088031BB
:10022000B420210053088031B420210052088031CD
:10023000B420210051088031B420210050088031C1
:10024000B420210055088031B4202100D60180312E
:10025000B6202100D400540A8131031930293529F0
:10026000D60A64305602031D2729540808000130BD
:100270002100BE003E08031949290130D000D101F8
:10028000D201D30101308031F6202100BE0081313E
:100290003A2908002400151214172100AA0122008F
:1002A0000E118E100E102000E530A0000A30A100C3
:1002B0008131A10B59298131A00B56290000000082
:1002C0000000000022000C162100AC01FF3080313C
:1002D000B4202100AC0A0B302C028131031D6629A9
:1002E000B0012A08031DA6292000E530A0000A302D
:1002F000A1008131A10B7A298131A00B772900005F
:1003000000000000000022000C122000AF30A0000E
:100310000230A1008131A10B8B298131A00B8829EA
:10032000000000002100D001D101D201D301003032
:100330008031F6202100AA0022000C162100B00A0C
:10034000643030028131031D7129080022000C1233
:10035000AA302100D0000130D100D201D3010830F1
:100360008031F6202100AA0081312A1DBE297A148D
:1003700022000C12372122000C160800B601803131
:10038000B6202100AA00B60A043036028131031DCE
:10039000BF2922000C16AA3021002A028231031D37
:1003A0001B2A22000C122100D001D101D201D3015D
:1003B00037308031F6202100AA00D001D101D201CE
:1003C0004030D30029308031F6202100AA002A08CD
:1003D0008131031DD329D001D101D201D3013A309B
:1003E0008031F6202100AA008031B6202100B20021
:1003F00040303205B300330882310319012A7A10E4
:10040000022A7A148031B6202100AA008031B62059
:100410002100AA008031B6202100AA00D0010230BC
:10042000D100D201D30110308031F6202100AA0082
:1004300022000C16080022000C16080022000C12E4
:100440002100CA01D001D101D201D3010C30803189
:10045000F6202100CA0A04304A028231031D222AF2
:1004600022000C16080024001512141722000C128A
:100470007A1C462A21004C08CD004B08CC004A08C3
:10048000CB00CA010310CB0DCC0DCD0D21004A08C5
:10049000D0004B08D1004C08D2004D08D3001230D8
:1004A0008031F6202000BB01BC01BD01BE01080067
:1004B00020003B083C04031D672A8031B620210040
:1004C000CE00FE304E0282310319672A5D2A803148
:1004D000B6202100CA002000BB0A0319BC0A3B0851
:1004E000A00002303C0220048231031D802ABB019F
:1004F000BC01BD0A0319BE0A8031B6208031B62086
:1005000021004A0808001E2222000C1608002A08B2
:10051000B0002B08B100B401B501932A5822210084
:10052000B40A0319B50A340830022000A0002100E3
:1005300035083102200020048231031D8E2A080074
:10054000080081314A212100A0010F302005200040
:10055000A000F030240015052000200424009500A0
:10056000F03015050A38950001309200FA108331F9
:10057000062BC801C901200068082100CA0020001C
:1005800069082100CB0020006A082100CC0020006F
:100590006B082100CD0033222100C701823158228F
:1005A0002000B4003F308400850121004708840703
:1005B0002000340880002100C70A20304702823121
:1005C000031DCE2A480845022000A000210049084A
:1005D000460220002004031DEF2A8331042B203023
:1005E0002100C8070030C93DFA18CC2A4908710219
:1005F000031DFC2A4808700283310319022B823143
:100600000318CC2A8331042B8231832AF201F301AF
:1006100084316D2C720873040319122B2030F207F9
:100620000030F33D72082100C5007308C600823116
:10063000B92220003F082100AA00E5302A028331B8
:10064000031D272B2030F2070030F33D122B2A0820
:10065000031D2D2BF201F301122B42302A02C3118C
:10066000031D0318C31554302A024312031D031C33
:100670004316431EC311C31D602B0F3020004A05D3
:100680002100B6000F303602031D602B40302A02D5
:10069000B700B8010310370DB900380DBA000430A7
:1006A000FF000310B90DBA0DFF0B512B3908F207EB
:1006B0003A08F33D7208C5007308C6008231B922BA
:1006C0005730200047022100C3130319C3174130DC
:1006D000200048022100441003194414441CC31391
:1006E0005630200049022100441003194414441CD0
:1006F000C313203020004A0221004410031944147F
:10070000441CC3138331C31F862B8B2B2030F2076D
:100710000030F33D122BFA1C962B200053082100C9
:10072000AE00200054082100AF00982BAE01AF01AD
:10073000200059082100AC0020005A082100AD001B
:1007400020005B08E0005C08E1005D08E2005E0854
:10075000E30066082100B600200067082100B7000A
:10076000B801B9010530FF000310B60DB70DB80D83
:10077000B90DFF0BB42B200064082100B607200040
:1007800065082100B73D00302000A0002100B83DE1
:10079000200020082100B93D0130B602031CB70239
:1007A000031CB802031CB90220006408A8006508F5
:1007B000A900AA01AB01210036082000A0002100F9
:1007C00037082000A100210038082000A2002100E5
:1007D00039082000A30080311F2020002C082100B0
:1007E000BF0020002D082100C00020002E0821009D
:1007F000C10020002F082100C2002000680821004D
:100800003F07B600200069082100403DB7002000E6
:100810006A082100413DB80020006B082100423DDC
:10082000B9002C08BA002D08BB002E08BC002F0808
:10083000BD000230BA020030FF00031C7F0FBB0274
:100840000030FF00031C7F0FBC020030FF00031CC0
:100850007F0FBD0220005F08A00021003A082000A1
:10086000A10021003B082000A20021003C0820003C
:10087000A30021003D082000A400803106202000B4
:1008800025082100BA00200026082100BB00200016
:1008900027082100BC00200028082100BD003608E0
:1008A0003A072000EC00210037083B3D2000ED0016
:1008B000210038083C3D2000EE00210039083D3D74
:1008C0002000EF00080020001C159110911C692CDD
:1008D000662C9110210091140800F401F501F60135
:1008E000F701EA2C3A1091183A143A1CE72CFF3021
:1008F0002400910014187D2C7A2C11082000B900D6
:10090000B700FF30240091001418872C842C1108A4
:100910002000B900B800370EA0003030A005CF305D
:10092000250013052000200425009300031020005B
:10093000370C250091000310910C2000380EA00008
:100940003030A005CF3025001A05200020042500F6
:100950009A0003102000380C250098000310980C12
:10096000F803780A0319F90378087904031DE52CC4
:10097000FF30240091001418BE2CBB2C110820005D
:10098000B900B700FF30240091001418C82CC52C02
:1009900011082000B900B700FF302400910014189E
:1009A000D22CCF2C11082000B900FE3039020319D7
:1009B000DA2CCC2CF8010130F9000130F402031CD0
:1009C000F502031CF602031CF70220009110300808
:1009D000A0000900CF302000180530389800B7304B
:1009E0009600D73097001814BA309B008B170B175E
:1009F0002100CA01CB01CC01CD0182313322C630A6
:100A00002100AA000130AB008231872282315822B6
:100A10002000BF00823158222000C00082315822BD
:100A20002000C100823158222000C200823183227E
:100A300020003F082100CA00200040082100CB0010
:100A4000200041082100CC00200042082100CD00F8
:100A5000823133222100A401823158222000B400C7
:100A60003F308400850121002408840720003408D9
:100A700080002100A40A203024028531031D2C2D82
:100A800020004A08E4004B08E5004C08DF0050084D
:100A9000E6005108E700D701D8015508FA15031DF3
:100AA000FA1156087A16031D7A127A1EFA11FA1DE7
:100AB0007A2DFA14823158222100A4008231582262
:100AC0002100A400823158222100A4008231582242
:100AD0002100A400823158222000D5008231582202
:100AE0002000D600823158222000D70082315822BF
:100AF0002000D8004F08A0005508A1005608A20009
:100B00005708A3005808A4008031062020002508BB
:100B10002100A000200026082100A10020002708B5
:100B20002100A200200028082100A30020004D0879
:100B30002100A00720004E082100A13D0030200028
:100B4000A0002100A23D200020082100A33D200894
:100B500020005B07E8002100210820005C3DE9003F
:100B60002100220820005D3DEA002100230820002A
:100B70005E3DEB000310660DF000670DF1000430E0
:100B8000FF000310F00DF10D8531FF0BC12D8231F7
:100B900083222100A001A1017A15FA117A12FA121A
:100BA000F8010130F900FD01FE010130A400A500AB
:100BB0007A13200011187A1785317A1BFC2D7408DE
:100BC000750476047704031DE62DFC2D7D08803A1C
:100BD000A0007E08803A20020319F32D031CF32D98
:100BE00022008C16F52D22008C12FE0A7D307E022A
:100BF000031DD82DFE01D82D1110B7309600D73027
:100C000097007408750476047704FB15031DFB1127
:100C1000FA19FB158631FB1D5F2E21009110200073
:100C20001C119110FA118231832283310A23200092
:100C30006C082100CA0020006D082100CB002000B4
:100C40006E082100CC0020006F082100CD00823109
:100C50003322200060082100A60020006108210046
:100C6000A700200062082100A800200063082100DE
:100C7000A9003030A6027530FF00031C7F0FA702C9
:100C80000030FF00031C7F0FA8020030FF00031C90
:100C90007F0FA9022708F4002808F5002908F600AC
:100CA000F7010310F60CF50CF40C2C30AA00AB0184
:100CB00082318722EA30F800F9018431632421006F
:100CC0002508FD077D08803A2000A000FD302002A5
:100CD00086310319712E031C712E21002409013E57
:100CE000A5007D08031D772E21002408A500210002
:100CF000911C7D2E0130A4007F2E0330A400FC1334
:100D000020008C19FC17FB137A19892EFC1BFB178A
:100D10008B2EFC1FFB17FB1FAC2EFC1FAC2E0030D4
:100D200021002102031D962E0A302002FB13031915
:100D30009B2E0318FB1700302102031DA12E8230C9
:100D40002002FC100319A62E031CFC14FC1CFB1330
:100D5000FB1BFA15A001A1017A11FC1B7A15FC1BE3
:100D6000B52E2100A00A0319A10A0030210021029A
:100D7000031DBC2E783020020319C12E031CC12E86
:100D80007A16FA1DC82E9118C82E9114FA117A12EB
:100D90007C13FA1ACE2E7A1A7C17D02E7A1E7C1764
:100DA0007C1FD52E7A1ED52E9110FA127A1AFA16B9
:040DB0008531D82D84
:020000040001F9
:02000E00AC093B
:02001000FF1FD0
:00000001FF
