:020000040000FA
:0400000080315C28C7
:0800080080315728A501A60173
:10001000A7010830B3000310A50DA60DA70DA80D6C
:100020000310A00D031C1C282108A5072208A63DCB
:100030002308A73D2408A83DB30B0B280800203057
:10004000B300A401A501A601A7010310AC0DAD0DDD
:10005000AE0DAF0D0310A00DA10DA20DA30DA40DAB
:10006000A50DA60DA70D27082B02031D4128260864
:100070002A02031D412825082902031D41282408BE
:10008000280203194528031854282808A40229081F
:10009000031C290FA5022A08031C2A0FA6022B08FD
:1000A000031C2B0FA7022C14B30B252808002000DB
:1000B0002008B0008431582C873021001905703891
:1000C0009900C03018051F389800C13097052300EB
:1000D0008C018E0121009D019E01043022009100BF
:1000E000920104309300940120005630A000BC30EF
:1000F000A1000F30A2008031A20B7C288031A10B1F
:1001000079288031A00B77282100951324008C15C5
:100110008E140C302500930021008E120C30250027
:100120009A0021008E118C120C1122000C16210055
:100130000C12D8282100D80024009100951BFF3410
:100140001418A328A02811080800D7009A28FF3007
:100150009A202100D7000800AA00240095019413DA
:1001600021002A08031DB828240015121417CA28D4
:100170002A03031DBF28240015121413CA280230B5
:100180002A02031DC728240015161417CA282400A4
:10019000151614130F3021002C052000A000F0309C
:1001A0002400150520002004240095009516080061
:1001B0008E140E110E100230AC000030AC20200066
:1001C000BB01BC01BD01BE017A1082318F2ACF0074
:1001D0004F08031DEE289530D500F72808304F0250
:1001E000031DF5288730D500F728FF30D5004030B3
:1001F000CF07FF30A52021004F088031A520210026
:1002000053088031A520210052088031A52021000B
:1002100051088031A520210050088031A5202100FF
:1002200055088031A5202100D6018031A72021006A
:10023000D400540A813103191E292329D60A6430B7
:100240005602031D15295408080001302100BE0084
:100250003E08031937290130D000D101D201D30162
:1002600001308031E7202100BE00813128290800BB
:100270002400151214172100AA0122000E118E105D
:100280000E102000E530A0000A30A1008131A10B42
:1002900047298131A00B4429000000000000000024
:1002A00022000C162100AC01FF308031A520210076
:1002B000AC0A0B302C028131031D5429B0012A08ED
:1002C000031D94292000E530A0000A30A1008131EF
:1002D000A10B68298131A00B6529000000000000F6
:1002E000000022000C122000AF30A0000230A1005C
:1002F0008131A10B79298131A00B76290000000002
:100300002100D001D101D201D30100308031E7209A
:100310002100AA0022000C162100B00A643030022D
:100320008131031D5F29080022000C12AA30210030
:10033000D0000130D100D201D30108308031E72054
:100340002100AA0081312A1DAC297A1422000C1246
:10035000252122000C160800B6018031A7202100BB
:10036000AA00B60A043036028131031DAD292200ED
:100370000C16AA3021002A028231031D092A22000C
:100380000C122100D001D101D201D30137308031CC
:10039000E7202100AA00D001D101D2014030D300D2
:1003A00029308031E7202100AA002A088131031D6D
:1003B000C129D001D101D201D3013A308031E720E7
:1003C0002100AA008031A7202100B2004030320570
:1003D000B300330881310319EF297A10F0297A1418
:1003E0008031A7202100AA008031A7202100AA0087
:1003F0008031A7202100AA00D0010230D100D20113
:10040000D30110308031E7202100AA0022000C1611
:10041000080022000C16080022000C122100CA015C
:10042000D001D101D201D3010C308031E72021006D
:10043000CA0A04304A028231031D102A22000C1617
:10044000080024001512141722000C127A1C342AFA
:1004500021004C08CD004B08CC004A08CB00CA0153
:100460000310CB0DCC0DCD0D21004A08D0004B0858
:10047000D1004C08D2004D08D30012308031E72063
:100480002000BB01BC01BD01BE01080020003B08EB
:100490003C04031D552A8031A7202100CE00FE30E8
:1004A0004E0282310319552A4B2A8031A7202100A0
:1004B000CA002000BB0A0319BC0A3B08A000023096
:1004C0003C0220048231031D6E2ABB01BC01BD0A1F
:1004D0000319BE0A8031A7208031A72021004A08D5
:1004E00008000C2222000C1608002A08B0002B0875
:1004F000B100B401B501812A46222100B40A0319D2
:10050000B50A340830022000A0002100350831026D
:10051000200020048231031D7C2A0800080081315C
:1005200038212100A0010F3020052000A000F0306C
:10053000240015052000200424009500FA108231C3
:10054000EA2AC801C901200068082100CA00200069
:1005500069082100CB0020006A082100CC0020009F
:100560006B082100CD0021222100C70182314622E3
:100570002000B4003F308400850121004708840733
:100580002000340880002100C70A20304702823151
:10059000031DB62A480845022000A0002100490892
:1005A000460220002004031DD62AE92A203021001B
:1005B000C8070030C93DFA18B42A49087102031D62
:1005C000E32A480870020319E72A0318B42A823183
:1005D000E92A712AF201F3018431532C7208730461
:1005E0000319F62A2030F2070030F33D720821008B
:1005F000C5007308C600A12220003F082100AA0000
:10060000E5302A028331031D0B2B2030F207003026
:10061000F33D8231F62A2A08031D122BF201F30161
:100620008231F62A42302A02C311031D0318C31572
:1006300054302A024312031D031C4316431EC311E8
:10064000C31D452B0F3020004A052100B6000F3096
:100650003602031D452B40302A02B700B8010310B3
:10066000370DB900380DBA000430FF000310B90D82
:10067000BA0DFF0B362B3908F2073A08F33D720822
:10068000C5007308C6008231A122573020004702FE
:100690002100C3130319C317413020004802210071
:1006A000441003194414441CC3135630200049025B
:1006B0002100441003194414441CC31320302000AB
:1006C0004A022100441003194414441CC31383310B
:1006D000C31F6B2B712B2030F2070030F33D8231AA
:1006E000F62AFA1C7C2B200053082100AE002000C3
:1006F00054082100AF007E2BAE01AF012000590845
:100700002100AC0020005A082100AD0020005B0849
:10071000E0005C08E1005D08E2005E08E3006608B6
:100720002100B600200067082100B700B801B90118
:100730000530FF000310B60DB70DB80DB90DFF0B56
:100740009A2B200064082100B607200065082100CC
:10075000B73D00302000A0002100B83D2000200857
:100760002100B93D0130B602031CB702031CB802D8
:10077000031CB90220006408A8006508A900AA01AA
:10078000AB01210036082000A0002100370820001E
:10079000A100210038082000A20021003908200013
:1007A000A30080311F2020002C082100BF00200062
:1007B0002D082100C00020002E082100C1002000CB
:1007C0002F082100C2002000680821003F07B60062
:1007D000200069082100403DB70020006A08210080
:1007E000413DB80020006B082100423DB9002C08B3
:1007F000BA002D08BB002E08BC002F08BD00023037
:10080000BA020030FF00031C7F0FBB020030FF0064
:10081000031C7F0FBC020030FF00031C7F0FBD02D2
:1008200020005F08A00021003A082000A10021005C
:100830003B082000A20021003C082000A30021006A
:100840003D082000A400803106202000250821005A
:10085000BA00200026082100BB0020002708210044
:10086000BC00200028082100BD0036083A072000FF
:10087000EC00210037083B3D2000ED002100380846
:100880003C3D2000EE00210039083D3D2000EF00F6
:10089000080020001C159110911C4F2C4C2C91101D
:1008A000210091140800F401F501F601F701D02CA4
:1008B0003A1091183A143A1CCD2CFF3024009100C4
:1008C0001418632C602C11082000B900B700FF3009
:1008D0002400910014186D2C6A2C11082000B90016
:1008E000B800370EA0003030A005CF30250013052A
:1008F000200020042500930003102000370C250061
:1009000091000310910C2000380EA0003030A0059B
:10091000CF3025001A052000200425009A0003107E
:100920002000380C250098000310980CF803780A72
:100930000319F90378087904031DCB2CFF30240038
:1009400091001418A42CA12C11082000B900B700A4
:10095000FF30240091001418AE2CAB2C110820009D
:10096000B900B700FF30240091001418B82CB52C42
:1009700011082000B900FE3039020319C02CB22C36
:10098000F8010130F9000130F402031CF502031CE8
:10099000F602031CF702200091103008A0000900A5
:1009A000CF302000180530389800B7309600D73087
:1009B00097001814BA309B008B170B172100CA013F
:1009C000CB01CC01CD0182312122C6302100AA0009
:1009D0000130AB0082317522823146222000BF00F7
:1009E000823146222000C000823146222000C10010
:1009F000823146222000C2008231712220003F084D
:100A00002100CA00200040082100CB00200041083E
:100A10002100CC00200042082100CD00823121229B
:100A20002100A401823146222000B4003F3084001E
:100A3000850121002408840720003408800021005B
:100A4000A40A203024028531031D122D20004A08FB
:100A5000E4004B08E5004C08DF005008E6005108B0
:100A6000E700D701D8015508FA15031DFA115608F9
:100A70007A16031D7A127A1EFA11FA1D602DFA14E5
:100A8000823146222100A400823146222100A400A6
:100A9000823146222100A400823146222100A40096
:100AA000823146222000D500823146222000D60025
:100AB000823146222000D700823146222000D80011
:100AC0004F08A0005508A1005608A2005708A3002F
:100AD0005808A40080310620200025082100A0002D
:100AE000200026082100A100200027082100A200E4
:100AF000200028082100A30020004D082100A007A5
:100B000020004E082100A13D00302000A00021005F
:100B1000A23D200020082100A33D200820005B0703
:100B2000E8002100210820005C3DE90021002208A6
:100B300020005D3DEA002100230820005E3DEB001F
:100B40000310660DF000670DF1000430FF00031084
:100B5000F00DF10D8531FF0BA72D8231712221009F
:100B6000A001A1017A15FA117A12FA12F8010130E6
:100B7000F900FD01FE010130A400A5007A13200058
:100B800011187A1785317A1BE22D740875047604E2
:100B90007704031DCC2DE22D7D08803AA0007E084D
:100BA000803A20020319D92D031CD92D22008C165E
:100BB000DB2D22008C12FE0A7D307E02031DBE2D2D
:100BC000FE01BE2D1110B7309600D7309700740883
:100BD000750476047704FB15031DFB11FA19FB1548
:100BE0008631FB1D452E2100911020001C11911013
:100BF000FA11823171228231EE2220006C0821002C
:100C0000CA0020006D082100CB0020006E082100E2
:100C1000CC0020006F082100CD008231212220006D
:100C200060082100A600200061082100A700200024
:100C300062082100A800200063082100A9003030CC
:100C4000A6027530FF00031C7F0FA7020030FF00D3
:100C5000031C7F0FA8020030FF00031C7F0FA902B6
:100C60002708F4002808F5002908F600F70103100A
:100C7000F60CF50CF40C2C30AA00AB018231752275
:100C8000EA30F800F9018431492421002508FD07E4
:100C90007D08803A2000A000FD3020028631031933
:100CA000572E031C572E21002409013EA5007D0864
:100CB000031D5D2E21002408A5002100911C632E38
:100CC0000130A400652E0330A400FC1320008C1911
:100CD000FC17FB137A196F2EFC1BFB17712EFC1FE0
:100CE000FB17FB1F922EFC1F922E003021002102C9
:100CF000031D7C2E0A302002FB130319812E0318DA
:100D0000FB1700302102031D872E82302002FC10C9
:100D100003198C2E031CFC14FC1CFB13FB1BFA1583
:100D2000A001A1017A11FC1B7A15FC1B9B2E21004E
:100D3000A00A0319A10A003021002102031DA22EDE
:100D4000783020020319A72E031CA72E7A16FA1D4D
:100D5000AE2E9118AE2E9114FA117A127C13FA1A53
:100D6000B42E7A1A7C17B62E7A1E7C177C1FBB2EE7
:100D70007A1EBB2E9110FA127A1AFA168531BE2D00
:020000040001F9
:02000E00AC093B
:02001000FF1FD0
:00000001FF
