:020000040000FA
:0400000080315C28C7
:0800080080315728A501A60173
:10001000A7010830B3000310A50DA60DA70DA80D6C
:100020000310A00D031C1C282108A5072208A63DCB
:100030002308A73D2408A83DB30B0B280800203057
:10004000B300A401A501A601A7010310AC0DAD0DDD
:10005000AE0DAF0D0310A00DA10DA20DA30DA40DAB
:10006000A50DA60DA70D27082B02031D4128260864
:100070002A02031D412825082902031D41282408BE
:10008000280203194528031854282808A40229081F
:10009000031C290FA5022A08031C2A0FA6022B08FD
:1000A000031C2B0FA7022C14B30B252808002000DB
:1000B0002008B0008431572C873021001905703892
:1000C0009900C03018050F389800C13097052300FB
:1000D0008C018D0121009D019E01043022009100C0
:1000E000920104309300940120005630A000BC30EF
:1000F000A1000F30A2008031A20B7C288031A10B1F
:1001000079288031A00B77282100951324009015C1
:1001100022001D140C30250093000C309A002100A1
:100120008D110E110C100C1022008E1421008E1057
:10013000D7282100D80024009100951BFF34141803
:10014000A2289F2811080800D7009928FF3099207D
:100150002100D7000800AA00240095019413210073
:100160002A08031DB728240015121417C9282A03CA
:10017000031DBE28240015121413C92802302A02B8
:10018000031DC628240015161417C92824001516A7
:1001900014130F3021002C052000A000F0302400A3
:1001A00015052000200424009500951608000E1661
:1001B0008E128E110230AC000030AB202000BB014B
:1001C000BC01BD01BE017A1082318E2ACF004F08DA
:1001D000031DED289530D500F62808304F02031D89
:1001E000F4288730D500F628FF30D5004030CF07FF
:1001F000FF30A42021004F088031A42021005308A3
:100200008031A420210052088031A420210051080F
:100210008031A420210050088031A42021005508FD
:100220008031A4202100D6018031A6202100D400F5
:10023000540A813103191D292229D60A6430560235
:10024000031D14295408080001302100BE003E0897
:10025000031936290130D000D101D201D301013078
:100260008031E6202100BE008131272908002400CA
:10027000151214172100AA0122008E120E128E11DF
:100280002000E530A0000A30A1008131A10B4629F1
:100290008131A00B43290000000000000000220073
:1002A0008E142100AC01FF308031A4202100AC0A63
:1002B0000B302C028131031D5329B0012A08031D84
:1002C00093292000E530A0000A30A1008131A10B64
:1002D00067298131A00B64290000000000000000A4
:1002E00022008E102000AF30A0000230A10081312A
:1002F000A10B78298131A00B752900000000210095
:10030000D001D101D201D30100308031E62021009B
:10031000AA0022008E142100B00A6430300281311C
:10032000031D5E29080022008E10AA302100D00093
:100330000130D100D201D30108308031E620210004
:10034000AA0081312A1DAB297A1422008E102421A3
:1003500022008E140800B6018031A6202100AA00D8
:10036000B60A043036028131031DAC2922008E14F6
:10037000AA3021002A028231031D082A22008E1091
:100380002100D001D101D201D30137308031E620E4
:100390002100AA00D001D101D2014030D300293080
:1003A0008031E6202100AA002A088131031DC029DE
:1003B000D001D101D201D3013A308031E6202100B1
:1003C000AA008031A6202100B20040303205B300DF
:1003D000330881310319EE297A10EF297A1480311C
:1003E000A6202100AA008031A6202100AA00803189
:1003F000A6202100AA00D0010230D100D201D301F1
:1004000010308031E6202100AA0022008E1408005E
:1004100022008E14080022008E102100CA01D00193
:10042000D101D201D3010C308031E6202100CA0A6B
:1004300004304A028231031D0F2A22008E14080064
:1004400024001512141722008E107A1C332A210062
:100450004C08CD004B08CC004A08CB00CA01031061
:10046000CB0DCC0DCD0D21004A08D0004B08D1009A
:100470004C08D2004D08D30012308031E620200015
:10048000BB01BC01BD01BE01080020003B083C04CB
:10049000031D542A8031A6202100CE00FE304E02DA
:1004A00082310319542A4A2A8031A6202100CA0029
:1004B0002000BB0A0319BC0A3B08A00002303C0222
:1004C00020048231031D6D2ABB01BC01BD0A031942
:1004D000BE0A8031A6208031A62021004A080800EB
:1004E0000B2222008E1408002A08B0002B08B1004D
:1004F000B401B501802A45222100B40A0319B50AC6
:10050000340830022000A00021003508310220000C
:1005100020048231031D7B2A080008008131372125
:100520002100A0010F3020052000A000F0302400A1
:1005300015052000200424009500FA108231E92AD4
:10054000C801C901200068082100CA00200069080C
:100550002100CB0020006A082100CC0020006B089D
:100560002100CD0020222100C70182314522200038
:10057000B4003F3084008501210047088407200033
:10058000340880002100C70A203047028231031D51
:10059000B52A480845022000A0002100490846026B
:1005A00020002004031DD52AE82A20302100C80796
:1005B0000030C93DFA18B32A49087102031DE22A26
:1005C000480870020319E62A0318B32A8231E82A80
:1005D000702AF201F3018431522C7208730403195A
:1005E000F52A2030F2070030F33D72082100C500E3
:1005F0007308C600A02220003F082100AA00E530B1
:100600002A028331031D0A2B2030F2070030F33D0C
:100610008231F52A2A08031D112BF201F3018231E0
:10062000F52A42302A02C311031D0318C3155430A2
:100630002A024312031D031C4316431EC311C31D8C
:10064000442B0F3020004A052100B6000F3036023F
:10065000031D442B40302A02B700B8010310370DA8
:10066000B900380DBA000430FF000310B90DBA0DFF
:10067000FF0B352B3908F2073A08F33D7208C50025
:100680007308C6008231A0225730200047022100A3
:10069000C3130319C317413020004802210044103E
:1006A00003194414441CC31356302000490221008E
:1006B000441003194414441CC313203020004A0280
:1006C0002100441003194414441CC3138331C31F75
:1006D0006A2B702B2030F2070030F33D8231F52A6F
:1006E000FA1C7B2B200053082100AE002000540888
:1006F0002100AF007D2BAE01AF0120005908210081
:10070000AC0020005A082100AD0020005B08E0008A
:100710005C08E1005D08E2005E08E3006608210075
:10072000B600200067082100B700B801B901053004
:10073000FF000310B60DB70DB80DB90DFF0B992BC7
:10074000200064082100B607200065082100B73D9D
:1007500000302000A0002100B83D2000200821002A
:10076000B93D0130B602031CB702031CB802031CDA
:10077000B90220006408A8006508A900AA01AB011D
:10078000210036082000A000210037082000A10029
:10079000210038082000A200210039082000A30011
:1007A00080311F2020002C082100BF0020002D08D0
:1007B0002100C00020002E082100C10020002F08C9
:1007C0002100C2002000680821003F07B600200079
:1007D00069082100403DB70020006A082100413D22
:1007E000B80020006B082100423DB9002C08BA0077
:1007F0002D08BB002E08BC002F08BD000230BA0235
:100800000030FF00031C7F0FBB020030FF00031C01
:100810007F0FBC020030FF00031C7F0FBD022000D1
:100820005F08A00021003A082000A10021003B0839
:100830002000A20021003C082000A30021003D0868
:100840002000A40080310620200025082100BA00E5
:10085000200026082100BB00200027082100BC0042
:10086000200028082100BD0036083A072000EC00CF
:10087000210037083B3D2000ED00210038083C3DB9
:100880002000EE00210039083D3D2000EF00080067
:1008900020001C159110911C4E2C4B2C9110210006
:1008A00091140800F401F501F601F701CF2C3A107C
:1008B00091183A143A1CCC2CFF30240091001418E3
:1008C000622C5F2C11082000B900B700FF30240013
:1008D000910014186C2C692C11082000B900B80084
:1008E000370EA0003030A005CF3025001A052000BB
:1008F000200425009A0003102000370C25009800E2
:100900000310980C2000380EA0003030A005CF3026
:10091000250013052000200425009300031020006B
:10092000380C250091000310910CF803780A031984
:10093000F90378087904031DCA2CFF3024009100C4
:100940001418A32CA02C11082000B900B700FF3008
:10095000240091001418AD2CAA2C11082000B90015
:10096000B700FF30240091001418B72CB42C1108E4
:100970002000B900FE3039020319BF2CB12CF80158
:100980000130F9000130F402031CF502031CF602E9
:10099000031CF702200091103008A0000900CF309E
:1009A0002000180530389800B7309600D7309700EF
:1009B0001814BA309B008B170B172100CA01CB010A
:1009C000CC01CD0182312022C6302100AA000130A5
:1009D000AB0082317422823145222000BF00823177
:1009E00045222000C000823145222000C100823112
:1009F00045222000C2008231702220003F082100E1
:100A0000CA00200040082100CB002000410821003E
:100A1000CC00200042082100CD008231202221009C
:100A2000A401823145222000B4003F3084008501BA
:100A30002100240884072000340880002100A40A33
:100A4000203024028531031D112D20004A08E400C6
:100A50004B08E5004C08DF005008E6005108E700AD
:100A6000D701D8015508FA15031DFA1156087A1650
:100A7000031D7A127A1EFA11FA1D5F2DFA148231C3
:100A800045222100A400823145222100A4008231A8
:100A900045222100A400823145222100A400823198
:100AA00045222000D500823145222000D600823127
:100AB00045222000D700823145222000D8004F086F
:100AC000A0005508A1005608A2005708A300580826
:100AD000A40080310620200025082100A00020006D
:100AE00026082100A100200027082100A2002000E4
:100AF00028082100A30020004D082100A0072000A5
:100B00004E082100A13D00302000A0002100A23DA0
:100B1000200020082100A33D200820005B07E800FA
:100B20002100210820005C3DE9002100220820006E
:100B30005D3DEA002100230820005E3DEB0003102C
:100B4000660DF000670DF1000430FF000310F00D9A
:100B5000F10D8531FF0BA62D823170222100A001FD
:100B6000A1017A15FA117A12FA12F8010130F9008E
:100B7000FD01FE010130A400A5007A132000111828
:100B80007A1785317A1BE12D740875047604770491
:100B9000031DCB2DE12D7D08803AA0007E08803A10
:100BA00020020319D82D031CD82D22000C14DA2D95
:100BB00022000C10FE0A7D307E02031DBD2DFE01B9
:100BC000BD2D1110B7309600D7309700740875040A
:100BD00076047704FB15031DFB11FA19FB1586310A
:100BE000FB1D442E2100911020001C119110FA11C0
:100BF000823170228231ED2220006C082100CA006F
:100C000020006D082100CB0020006E082100CC00E0
:100C100020006F082100CD008231202220006008D2
:100C20002100A600200061082100A7002000620822
:100C30002100A800200063082100A9003030A6028E
:100C40007530FF00031C7F0FA7020030FF00031C5C
:100C50007F0FA8020030FF00031C7F0FA9022708A6
:100C6000F4002808F5002908F600F7010310F60C37
:100C7000F50CF40C2C30AA00AB0182317422EA305E
:100C8000F800F9018431482421002508FD077D087A
:100C9000803A2000A000FD30200286310319562E34
:100CA000031C562E21002409013EA5007D08031DCA
:100CB0005C2E21002408A5002100911C622E013029
:100CC000A400642E0330A400FC1320009019FC172C
:100CD000FB137A196E2EFC1BFB17702EFC1FFB17E3
:100CE000FB1F912EFC1F912E003021002102031DBD
:100CF0007B2E0A302002FB130319802E0318FB17EA
:100D000000302102031D862E82302002FC100319C0
:100D10008B2E031CFC14FC1CFB13FB1BFA15A001FF
:100D2000A1017A11FC1B7A15FC1B9A2E2100A00A46
:100D30000319A10A003021002102031DA12E7830E1
:100D400020020319A62E031CA62E7A16FA1DAD2E1C
:100D50009118AD2E9114FA117A127C13FA1AB32E4F
:100D60007A1A7C17B52E7A1E7C177C1FBA2E7A1E33
:0E0D7000BA2E9110FA127A1AFA168531BD2D9C
:020000040001F9
:02000E00AC093B
:02001000FF1FD0
:00000001FF
